{
  "_format": "hh3-artifact-1",
  "contractName": "TuneChain",
  "sourceName": "contracts/TuneChain.sol",
  "abi": [
    {
      "inputs": [
        {
          "internalType": "address",
          "name": "_tuneToken",
          "type": "address"
        },
        {
          "internalType": "address[]",
          "name": "_admins",
          "type": "address[]"
        }
      ],
      "stateMutability": "nonpayable",
      "type": "constructor"
    },
    {
      "inputs": [],
      "name": "AccessControlBadConfirmation",
      "type": "error"
    },
    {
      "inputs": [
        {
          "internalType": "address",
          "name": "account",
          "type": "address"
        },
        {
          "internalType": "bytes32",
          "name": "neededRole",
          "type": "bytes32"
        }
      ],
      "name": "AccessControlUnauthorizedAccount",
      "type": "error"
    },
    {
      "inputs": [],
      "name": "ReentrancyGuardReentrantCall",
      "type": "error"
    },
    {
      "anonymous": false,
      "inputs": [
        {
          "indexed": true,
          "internalType": "uint256",
          "name": "reportId",
          "type": "uint256"
        },
        {
          "indexed": false,
          "internalType": "bool",
          "name": "removed",
          "type": "bool"
        }
      ],
      "name": "ReportResolved",
      "type": "event"
    },
    {
      "anonymous": false,
      "inputs": [
        {
          "indexed": true,
          "internalType": "bytes32",
          "name": "role",
          "type": "bytes32"
        },
        {
          "indexed": true,
          "internalType": "bytes32",
          "name": "previousAdminRole",
          "type": "bytes32"
        },
        {
          "indexed": true,
          "internalType": "bytes32",
          "name": "newAdminRole",
          "type": "bytes32"
        }
      ],
      "name": "RoleAdminChanged",
      "type": "event"
    },
    {
      "anonymous": false,
      "inputs": [
        {
          "indexed": true,
          "internalType": "bytes32",
          "name": "role",
          "type": "bytes32"
        },
        {
          "indexed": true,
          "internalType": "address",
          "name": "account",
          "type": "address"
        },
        {
          "indexed": true,
          "internalType": "address",
          "name": "sender",
          "type": "address"
        }
      ],
      "name": "RoleGranted",
      "type": "event"
    },
    {
      "anonymous": false,
      "inputs": [
        {
          "indexed": true,
          "internalType": "bytes32",
          "name": "role",
          "type": "bytes32"
        },
        {
          "indexed": true,
          "internalType": "address",
          "name": "account",
          "type": "address"
        },
        {
          "indexed": true,
          "internalType": "address",
          "name": "sender",
          "type": "address"
        }
      ],
      "name": "RoleRevoked",
      "type": "event"
    },
    {
      "anonymous": false,
      "inputs": [
        {
          "indexed": true,
          "internalType": "address",
          "name": "creator",
          "type": "address"
        },
        {
          "indexed": false,
          "internalType": "uint256",
          "name": "amount",
          "type": "uint256"
        }
      ],
      "name": "TipWithdrawn",
      "type": "event"
    },
    {
      "anonymous": false,
      "inputs": [
        {
          "indexed": true,
          "internalType": "uint256",
          "name": "trackId",
          "type": "uint256"
        }
      ],
      "name": "TrackDeactivated",
      "type": "event"
    },
    {
      "anonymous": false,
      "inputs": [
        {
          "indexed": true,
          "internalType": "uint256",
          "name": "reportId",
          "type": "uint256"
        },
        {
          "indexed": true,
          "internalType": "address",
          "name": "reporter",
          "type": "address"
        },
        {
          "indexed": true,
          "internalType": "uint256",
          "name": "trackId",
          "type": "uint256"
        }
      ],
      "name": "TrackReported",
      "type": "event"
    },
    {
      "anonymous": false,
      "inputs": [
        {
          "indexed": true,
          "internalType": "uint256",
          "name": "tipId",
          "type": "uint256"
        },
        {
          "indexed": true,
          "internalType": "uint256",
          "name": "trackId",
          "type": "uint256"
        },
        {
          "indexed": true,
          "internalType": "address",
          "name": "tipper",
          "type": "address"
        },
        {
          "indexed": false,
          "internalType": "uint256",
          "name": "amount",
          "type": "uint256"
        }
      ],
      "name": "TrackTipped",
      "type": "event"
    },
    {
      "anonymous": false,
      "inputs": [
        {
          "indexed": true,
          "internalType": "uint256",
          "name": "trackId",
          "type": "uint256"
        },
        {
          "indexed": true,
          "internalType": "address",
          "name": "creator",
          "type": "address"
        },
        {
          "indexed": false,
          "internalType": "string",
          "name": "ipfsHash",
          "type": "string"
        },
        {
          "indexed": false,
          "internalType": "string",
          "name": "title",
          "type": "string"
        }
      ],
      "name": "TrackUploaded",
      "type": "event"
    },
    {
      "inputs": [],
      "name": "ADMIN_ROLE",
      "outputs": [
        {
          "internalType": "bytes32",
          "name": "",
          "type": "bytes32"
        }
      ],
      "stateMutability": "view",
      "type": "function"
    },
    {
      "inputs": [],
      "name": "DEFAULT_ADMIN_ROLE",
      "outputs": [
        {
          "internalType": "bytes32",
          "name": "",
          "type": "bytes32"
        }
      ],
      "stateMutability": "view",
      "type": "function"
    },
    {
      "inputs": [
        {
          "internalType": "address",
          "name": "",
          "type": "address"
        },
        {
          "internalType": "uint256",
          "name": "",
          "type": "uint256"
        }
      ],
      "name": "creatorTracks",
      "outputs": [
        {
          "internalType": "uint256",
          "name": "",
          "type": "uint256"
        }
      ],
      "stateMutability": "view",
      "type": "function"
    },
    {
      "inputs": [
        {
          "internalType": "bytes32",
          "name": "role",
          "type": "bytes32"
        }
      ],
      "name": "getRoleAdmin",
      "outputs": [
        {
          "internalType": "bytes32",
          "name": "",
          "type": "bytes32"
        }
      ],
      "stateMutability": "view",
      "type": "function"
    },
    {
      "inputs": [
        {
          "internalType": "bytes32",
          "name": "role",
          "type": "bytes32"
        },
        {
          "internalType": "address",
          "name": "account",
          "type": "address"
        }
      ],
      "name": "grantRole",
      "outputs": [],
      "stateMutability": "nonpayable",
      "type": "function"
    },
    {
      "inputs": [
        {
          "internalType": "bytes32",
          "name": "role",
          "type": "bytes32"
        },
        {
          "internalType": "address",
          "name": "account",
          "type": "address"
        }
      ],
      "name": "hasRole",
      "outputs": [
        {
          "internalType": "bool",
          "name": "",
          "type": "bool"
        }
      ],
      "stateMutability": "view",
      "type": "function"
    },
    {
      "inputs": [],
      "name": "nextReportId",
      "outputs": [
        {
          "internalType": "uint256",
          "name": "",
          "type": "uint256"
        }
      ],
      "stateMutability": "view",
      "type": "function"
    },
    {
      "inputs": [],
      "name": "nextTipId",
      "outputs": [
        {
          "internalType": "uint256",
          "name": "",
          "type": "uint256"
        }
      ],
      "stateMutability": "view",
      "type": "function"
    },
    {
      "inputs": [],
      "name": "nextTrackId",
      "outputs": [
        {
          "internalType": "uint256",
          "name": "",
          "type": "uint256"
        }
      ],
      "stateMutability": "view",
      "type": "function"
    },
    {
      "inputs": [
        {
          "internalType": "bytes32",
          "name": "role",
          "type": "bytes32"
        },
        {
          "internalType": "address",
          "name": "callerConfirmation",
          "type": "address"
        }
      ],
      "name": "renounceRole",
      "outputs": [],
      "stateMutability": "nonpayable",
      "type": "function"
    },
    {
      "inputs": [
        {
          "internalType": "uint256",
          "name": "",
          "type": "uint256"
        }
      ],
      "name": "reportCount",
      "outputs": [
        {
          "internalType": "uint256",
          "name": "",
          "type": "uint256"
        }
      ],
      "stateMutability": "view",
      "type": "function"
    },
    {
      "inputs": [
        {
          "internalType": "uint256",
          "name": "",
          "type": "uint256"
        },
        {
          "internalType": "string",
          "name": "",
          "type": "string"
        }
      ],
      "name": "reportTrack",
      "outputs": [],
      "stateMutability": "nonpayable",
      "type": "function"
    },
    {
      "inputs": [
        {
          "internalType": "uint256",
          "name": "",
          "type": "uint256"
        }
      ],
      "name": "reports",
      "outputs": [
        {
          "internalType": "uint256",
          "name": "reportId",
          "type": "uint256"
        },
        {
          "internalType": "address",
          "name": "reporter",
          "type": "address"
        },
        {
          "internalType": "uint256",
          "name": "trackId",
          "type": "uint256"
        },
        {
          "internalType": "string",
          "name": "reason",
          "type": "string"
        },
        {
          "internalType": "bool",
          "name": "resolved",
          "type": "bool"
        },
        {
          "internalType": "uint256",
          "name": "createdAt",
          "type": "uint256"
        }
      ],
      "stateMutability": "view",
      "type": "function"
    },
    {
      "inputs": [
        {
          "internalType": "uint256",
          "name": "",
          "type": "uint256"
        },
        {
          "internalType": "bool",
          "name": "",
          "type": "bool"
        }
      ],
      "name": "resolveReport",
      "outputs": [],
      "stateMutability": "nonpayable",
      "type": "function"
    },
    {
      "inputs": [
        {
          "internalType": "bytes32",
          "name": "role",
          "type": "bytes32"
        },
        {
          "internalType": "address",
          "name": "account",
          "type": "address"
        }
      ],
      "name": "revokeRole",
      "outputs": [],
      "stateMutability": "nonpayable",
      "type": "function"
    },
    {
      "inputs": [
        {
          "internalType": "bytes4",
          "name": "interfaceId",
          "type": "bytes4"
        }
      ],
      "name": "supportsInterface",
      "outputs": [
        {
          "internalType": "bool",
          "name": "",
          "type": "bool"
        }
      ],
      "stateMutability": "view",
      "type": "function"
    },
    {
      "inputs": [
        {
          "internalType": "uint256",
          "name": "",
          "type": "uint256"
        }
      ],
      "name": "tipRecords",
      "outputs": [
        {
          "internalType": "address",
          "name": "tipper",
          "type": "address"
        },
        {
          "internalType": "uint256",
          "name": "trackId",
          "type": "uint256"
        },
        {
          "internalType": "uint256",
          "name": "amount",
          "type": "uint256"
        },
        {
          "internalType": "uint256",
          "name": "timestamp",
          "type": "uint256"
        }
      ],
      "stateMutability": "view",
      "type": "function"
    },
    {
      "inputs": [
        {
          "internalType": "uint256",
          "name": "",
          "type": "uint256"
        },
        {
          "internalType": "uint256",
          "name": "",
          "type": "uint256"
        }
      ],
      "name": "tipTrack",
      "outputs": [],
      "stateMutability": "nonpayable",
      "type": "function"
    },
    {
      "inputs": [
        {
          "internalType": "uint256",
          "name": "",
          "type": "uint256"
        }
      ],
      "name": "tracks",
      "outputs": [
        {
          "internalType": "uint256",
          "name": "trackId",
          "type": "uint256"
        },
        {
          "internalType": "address",
          "name": "creator",
          "type": "address"
        },
        {
          "internalType": "string",
          "name": "ipfsHash",
          "type": "string"
        },
        {
          "internalType": "string",
          "name": "title",
          "type": "string"
        },
        {
          "internalType": "uint256",
          "name": "totalTips",
          "type": "uint256"
        },
        {
          "internalType": "bool",
          "name": "isActive",
          "type": "bool"
        },
        {
          "internalType": "uint256",
          "name": "createdAt",
          "type": "uint256"
        }
      ],
      "stateMutability": "view",
      "type": "function"
    },
    {
      "inputs": [],
      "name": "tuneToken",
      "outputs": [
        {
          "internalType": "contract TuneToken",
          "name": "",
          "type": "address"
        }
      ],
      "stateMutability": "view",
      "type": "function"
    },
    {
      "inputs": [
        {
          "internalType": "string",
          "name": "",
          "type": "string"
        },
        {
          "internalType": "string",
          "name": "",
          "type": "string"
        }
      ],
      "name": "uploadTrack",
      "outputs": [],
      "stateMutability": "nonpayable",
      "type": "function"
    },
    {
      "inputs": [],
      "name": "withdrawTips",
      "outputs": [],
      "stateMutability": "nonpayable",
      "type": "function"
    }
  ],
  "bytecode": "0x60a060405234801561000f575f5ffd5b50604051611d62380380611d6283398181016040528101906100319190610590565b600161004f61004461024460201b60201c565b61026d60201b60201c565b5f01819055505f73ffffffffffffffffffffffffffffffffffffffff168273ffffffffffffffffffffffffffffffffffffffff16036100c3576040517f08c379a00000000000000000000000000000000000000000000000000000000081526004016100ba90610644565b60405180910390fd5b6004815114610107576040517f08c379a00000000000000000000000000000000000000000000000000000000081526004016100fe906106ac565b60405180910390fd5b8173ffffffffffffffffffffffffffffffffffffffff1660808173ffffffffffffffffffffffffffffffffffffffff168152505061014d5f5f1b3361027660201b60201c565b505f5f90505b815181101561023c575f73ffffffffffffffffffffffffffffffffffffffff16828281518110610186576101856106ca565b5b602002602001015173ffffffffffffffffffffffffffffffffffffffff16036101e4576040517f08c379a00000000000000000000000000000000000000000000000000000000081526004016101db90610767565b60405180910390fd5b61022e7fa49807205ce4d355092ef5a8a18f56e8913cf4a201fbe287825b095693c2177583838151811061021b5761021a6106ca565b5b602002602001015161027660201b60201c565b508080600101915050610153565b505050610785565b5f7f9b779b17422d0df92223018b32b4d1fa46e071723d6817e2486d003becc55f005f1b905090565b5f819050919050565b5f610287838361036b60201b60201c565b6103615760015f5f8581526020019081526020015f205f015f8473ffffffffffffffffffffffffffffffffffffffff1673ffffffffffffffffffffffffffffffffffffffff1681526020019081526020015f205f6101000a81548160ff0219169083151502179055506102fe6103ce60201b60201c565b73ffffffffffffffffffffffffffffffffffffffff168273ffffffffffffffffffffffffffffffffffffffff16847f2f8788117e7eff1d82e926ec794901d17c78024a50270940304540a733656f0d60405160405180910390a460019050610365565b5f90505b92915050565b5f5f5f8481526020019081526020015f205f015f8373ffffffffffffffffffffffffffffffffffffffff1673ffffffffffffffffffffffffffffffffffffffff1681526020019081526020015f205f9054906101000a900460ff16905092915050565b5f33905090565b5f604051905090565b5f5ffd5b5f5ffd5b5f73ffffffffffffffffffffffffffffffffffffffff82169050919050565b5f61040f826103e6565b9050919050565b61041f81610405565b8114610429575f5ffd5b50565b5f8151905061043a81610416565b92915050565b5f5ffd5b5f601f19601f8301169050919050565b7f4e487b71000000000000000000000000000000000000000000000000000000005f52604160045260245ffd5b61048a82610444565b810181811067ffffffffffffffff821117156104a9576104a8610454565b5b80604052505050565b5f6104bb6103d5565b90506104c78282610481565b919050565b5f67ffffffffffffffff8211156104e6576104e5610454565b5b602082029050602081019050919050565b5f5ffd5b5f61050d610508846104cc565b6104b2565b905080838252602082019050602084028301858111156105305761052f6104f7565b5b835b818110156105595780610545888261042c565b845260208401935050602081019050610532565b5050509392505050565b5f82601f83011261057757610576610440565b5b81516105878482602086016104fb565b91505092915050565b5f5f604083850312156105a6576105a56103de565b5b5f6105b38582860161042c565b925050602083015167ffffffffffffffff8111156105d4576105d36103e2565b5b6105e085828601610563565b9150509250929050565b5f82825260208201905092915050565b7f54756e65436861696e3a207a65726f20746f6b656e20616464726573730000005f82015250565b5f61062e601d836105ea565b9150610639826105fa565b602082019050919050565b5f6020820190508181035f83015261065b81610622565b9050919050565b7f54756e65436861696e3a206e6565642065786163746c7920342061646d696e735f82015250565b5f6106966020836105ea565b91506106a182610662565b602082019050919050565b5f6020820190508181035f8301526106c38161068a565b9050919050565b7f4e487b71000000000000000000000000000000000000000000000000000000005f52603260045260245ffd5b7f54756e65436861696e3a2061646d696e2063616e6e6f74206265207a65726f205f8201527f6164647265737300000000000000000000000000000000000000000000000000602082015250565b5f6107516027836105ea565b915061075c826106f7565b604082019050919050565b5f6020820190508181035f83015261077e81610745565b9050919050565b6080516115c561079d5f395f61068301526115c55ff3fe608060405234801561000f575f5ffd5b5060043610610140575f3560e01c8063a217fddf116100b6578063b91b6b661161007a578063b91b6b6614610369578063bac96ae914610387578063c942adf7146103b7578063d547741f146103ec578063dda82bdd14610408578063e626dd9c1461043857610140565b8063a217fddf146102bf578063a2e34586146102dd578063a6f5765b14610313578063a72024c61461032f578063acc9a5a21461034d57610140565b80633aaa74b2116101085780633aaa74b21461020f5780636283128a146102195780636e79bbf61461023557806375b238fc146102535780638d54df2d1461027157806391d148541461028f57610140565b806301ffc9a714610144578063248a9ca3146101745780632f2ff15d146101a4578063363198c6146101c057806336568abe146101f3575b5f5ffd5b61015e60048036038101906101599190610e6a565b610454565b60405161016b9190610eaf565b60405180910390f35b61018e60048036038101906101899190610efb565b6104cd565b60405161019b9190610f35565b60405180910390f35b6101be60048036038101906101b99190610fa8565b6104e9565b005b6101da60048036038101906101d59190611019565b61050b565b6040516101ea9493929190611062565b60405180910390f35b61020d60048036038101906102089190610fa8565b610556565b005b6102176105d1565b005b610233600480360381019061022e91906110a5565b610614565b005b61023d610657565b60405161024a91906110e3565b60405180910390f35b61025b61065d565b6040516102689190610f35565b60405180910390f35b610279610681565b6040516102869190611157565b60405180910390f35b6102a960048036038101906102a49190610fa8565b6106a5565b6040516102b69190610eaf565b60405180910390f35b6102c7610708565b6040516102d49190610f35565b60405180910390f35b6102f760048036038101906102f29190611019565b61070e565b60405161030a97969594939291906111e0565b60405180910390f35b61032d60048036038101906103289190611285565b610883565b005b6103376108e8565b60405161034491906110e3565b60405180910390f35b61036760048036038101906103629190611324565b6108ee565b005b610371610929565b60405161037e91906110e3565b60405180910390f35b6103a1600480360381019061039c91906113a2565b61092f565b6040516103ae91906110e3565b60405180910390f35b6103d160048036038101906103cc9190611019565b61095a565b6040516103e3969594939291906113e0565b60405180910390f35b61040660048036038101906104019190610fa8565b610a43565b005b610422600480360381019061041d9190611019565b610a65565b60405161042f91906110e3565b60405180910390f35b610452600480360381019061044d9190611446565b610a7a565b005b5f7f7965db0b000000000000000000000000000000000000000000000000000000007bffffffffffffffffffffffffffffffffffffffffffffffffffffffff1916827bffffffffffffffffffffffffffffffffffffffffffffffffffffffff191614806104c657506104c582610ab5565b5b9050919050565b5f5f5f8381526020019081526020015f20600101549050919050565b6104f2826104cd565b6104fb81610b1e565b6105058383610b32565b50505050565b6002602052805f5260405f205f91509050805f015f9054906101000a900473ffffffffffffffffffffffffffffffffffffffff16908060010154908060020154908060030154905084565b61055e610c1b565b73ffffffffffffffffffffffffffffffffffffffff168173ffffffffffffffffffffffffffffffffffffffff16146105c2576040517f6697b23200000000000000000000000000000000000000000000000000000000815260040160405180910390fd5b6105cc8282610c22565b505050565b6105d9610d0b565b6040517f08c379a000000000000000000000000000000000000000000000000000000000815260040161060b906114ed565b60405180910390fd5b61061c610d0b565b6040517f08c379a000000000000000000000000000000000000000000000000000000000815260040161064e906114ed565b60405180910390fd5b60085481565b7fa49807205ce4d355092ef5a8a18f56e8913cf4a201fbe287825b095693c2177581565b7f000000000000000000000000000000000000000000000000000000000000000081565b5f5f5f8481526020019081526020015f205f015f8373ffffffffffffffffffffffffffffffffffffffff1673ffffffffffffffffffffffffffffffffffffffff1681526020019081526020015f205f9054906101000a900460ff16905092915050565b5f5f1b81565b6001602052805f5260405f205f91509050805f015490806001015f9054906101000a900473ffffffffffffffffffffffffffffffffffffffff169080600201805461075890611538565b80601f016020809104026020016040519081016040528092919081815260200182805461078490611538565b80156107cf5780601f106107a6576101008083540402835291602001916107cf565b820191905f5260205f20905b8154815290600101906020018083116107b257829003601f168201915b5050505050908060030180546107e490611538565b80601f016020809104026020016040519081016040528092919081815260200182805461081090611538565b801561085b5780601f106108325761010080835404028352916020019161085b565b820191905f5260205f20905b81548152906001019060200180831161083e57829003601f168201915b505050505090806004015490806005015f9054906101000a900460ff16908060060154905087565b7fa49807205ce4d355092ef5a8a18f56e8913cf4a201fbe287825b095693c217756108ad81610b1e565b6040517f08c379a00000000000000000000000000000000000000000000000000000000081526004016108df906114ed565b60405180910390fd5b60065481565b6040517f08c379a0000000000000000000000000000000000000000000000000000000008152600401610920906114ed565b60405180910390fd5b60075481565b6004602052815f5260405f208181548110610948575f80fd5b905f5260205f20015f91509150505481565b6003602052805f5260405f205f91509050805f015490806001015f9054906101000a900473ffffffffffffffffffffffffffffffffffffffff16908060020154908060030180546109aa90611538565b80601f01602080910402602001604051908101604052809291908181526020018280546109d690611538565b8015610a215780601f106109f857610100808354040283529160200191610a21565b820191905f5260205f20905b815481529060010190602001808311610a0457829003601f168201915b505050505090806004015f9054906101000a900460ff16908060050154905086565b610a4c826104cd565b610a5581610b1e565b610a5f8383610c22565b50505050565b6005602052805f5260405f205f915090505481565b6040517f08c379a0000000000000000000000000000000000000000000000000000000008152600401610aac906114ed565b60405180910390fd5b5f7f01ffc9a7000000000000000000000000000000000000000000000000000000007bffffffffffffffffffffffffffffffffffffffffffffffffffffffff1916827bffffffffffffffffffffffffffffffffffffffffffffffffffffffff1916149050919050565b610b2f81610b2a610c1b565b610d2d565b50565b5f610b3d83836106a5565b610c115760015f5f8581526020019081526020015f205f015f8473ffffffffffffffffffffffffffffffffffffffff1673ffffffffffffffffffffffffffffffffffffffff1681526020019081526020015f205f6101000a81548160ff021916908315150217905550610bae610c1b565b73ffffffffffffffffffffffffffffffffffffffff168273ffffffffffffffffffffffffffffffffffffffff16847f2f8788117e7eff1d82e926ec794901d17c78024a50270940304540a733656f0d60405160405180910390a460019050610c15565b5f90505b92915050565b5f33905090565b5f610c2d83836106a5565b15610d01575f5f5f8581526020019081526020015f205f015f8473ffffffffffffffffffffffffffffffffffffffff1673ffffffffffffffffffffffffffffffffffffffff1681526020019081526020015f205f6101000a81548160ff021916908315150217905550610c9e610c1b565b73ffffffffffffffffffffffffffffffffffffffff168273ffffffffffffffffffffffffffffffffffffffff16847ff6391f5c32d9c69d2a47ea670b442974b53935d1edc7fd64eb21e047a839171b60405160405180910390a460019050610d05565b5f90505b92915050565b610d13610d7e565b6002610d25610d20610dbf565b610de8565b5f0181905550565b610d3782826106a5565b610d7a5780826040517fe2517d3f000000000000000000000000000000000000000000000000000000008152600401610d71929190611568565b60405180910390fd5b5050565b610d86610df1565b15610dbd576040517f3ee5aeb500000000000000000000000000000000000000000000000000000000815260040160405180910390fd5b565b5f7f9b779b17422d0df92223018b32b4d1fa46e071723d6817e2486d003becc55f005f1b905090565b5f819050919050565b5f6002610e04610dff610dbf565b610de8565b5f015414905090565b5f5ffd5b5f5ffd5b5f7fffffffff0000000000000000000000000000000000000000000000000000000082169050919050565b610e4981610e15565b8114610e53575f5ffd5b50565b5f81359050610e6481610e40565b92915050565b5f60208284031215610e7f57610e7e610e0d565b5b5f610e8c84828501610e56565b91505092915050565b5f8115159050919050565b610ea981610e95565b82525050565b5f602082019050610ec25f830184610ea0565b92915050565b5f819050919050565b610eda81610ec8565b8114610ee4575f5ffd5b50565b5f81359050610ef581610ed1565b92915050565b5f60208284031215610f1057610f0f610e0d565b5b5f610f1d84828501610ee7565b91505092915050565b610f2f81610ec8565b82525050565b5f602082019050610f485f830184610f26565b92915050565b5f73ffffffffffffffffffffffffffffffffffffffff82169050919050565b5f610f7782610f4e565b9050919050565b610f8781610f6d565b8114610f91575f5ffd5b50565b5f81359050610fa281610f7e565b92915050565b5f5f60408385031215610fbe57610fbd610e0d565b5b5f610fcb85828601610ee7565b9250506020610fdc85828601610f94565b9150509250929050565b5f819050919050565b610ff881610fe6565b8114611002575f5ffd5b50565b5f8135905061101381610fef565b92915050565b5f6020828403121561102e5761102d610e0d565b5b5f61103b84828501611005565b91505092915050565b61104d81610f6d565b82525050565b61105c81610fe6565b82525050565b5f6080820190506110755f830187611044565b6110826020830186611053565b61108f6040830185611053565b61109c6060830184611053565b95945050505050565b5f5f604083850312156110bb576110ba610e0d565b5b5f6110c885828601611005565b92505060206110d985828601611005565b9150509250929050565b5f6020820190506110f65f830184611053565b92915050565b5f819050919050565b5f61111f61111a61111584610f4e565b6110fc565b610f4e565b9050919050565b5f61113082611105565b9050919050565b5f61114182611126565b9050919050565b61115181611137565b82525050565b5f60208201905061116a5f830184611148565b92915050565b5f81519050919050565b5f82825260208201905092915050565b8281835e5f83830152505050565b5f601f19601f8301169050919050565b5f6111b282611170565b6111bc818561117a565b93506111cc81856020860161118a565b6111d581611198565b840191505092915050565b5f60e0820190506111f35f83018a611053565b6112006020830189611044565b818103604083015261121281886111a8565b9050818103606083015261122681876111a8565b90506112356080830186611053565b61124260a0830185610ea0565b61124f60c0830184611053565b98975050505050505050565b61126481610e95565b811461126e575f5ffd5b50565b5f8135905061127f8161125b565b92915050565b5f5f6040838503121561129b5761129a610e0d565b5b5f6112a885828601611005565b92505060206112b985828601611271565b9150509250929050565b5f5ffd5b5f5ffd5b5f5ffd5b5f5f83601f8401126112e4576112e36112c3565b5b8235905067ffffffffffffffff811115611301576113006112c7565b5b60208301915083600182028301111561131d5761131c6112cb565b5b9250929050565b5f5f5f5f6040858703121561133c5761133b610e0d565b5b5f85013567ffffffffffffffff81111561135957611358610e11565b5b611365878288016112cf565b9450945050602085013567ffffffffffffffff81111561138857611387610e11565b5b611394878288016112cf565b925092505092959194509250565b5f5f604083850312156113b8576113b7610e0d565b5b5f6113c585828601610f94565b92505060206113d685828601611005565b9150509250929050565b5f60c0820190506113f35f830189611053565b6114006020830188611044565b61140d6040830187611053565b818103606083015261141f81866111a8565b905061142e6080830185610ea0565b61143b60a0830184611053565b979650505050505050565b5f5f5f6040848603121561145d5761145c610e0d565b5b5f61146a86828701611005565b935050602084013567ffffffffffffffff81111561148b5761148a610e11565b5b611497868287016112cf565b92509250509250925092565b7f54756e65436861696e3a206e6f7420696d706c656d656e7465642079657400005f82015250565b5f6114d7601e8361117a565b91506114e2826114a3565b602082019050919050565b5f6020820190508181035f830152611504816114cb565b9050919050565b7f4e487b71000000000000000000000000000000000000000000000000000000005f52602260045260245ffd5b5f600282049050600182168061154f57607f821691505b6020821081036115625761156161150b565b5b50919050565b5f60408201905061157b5f830185611044565b6115886020830184610f26565b939250505056fea26469706673582212204f1ed96feb9462ebc6086a5b78fe5238742be1b06f7eb29a23d1d60dfe02868964736f6c634300081c0033",
  "linkReferences": {},
  "deployedLinkReferences": {},
  "immutableReferences": {
    "1605": [
      {
        "length": 32,
        "start": 1667
      }
    ]
  },
  "inputSourceName": "project/contracts/TuneChain.sol",
  "buildInfoId": "solc-0_8_28-3163a4461d0bfd8a0ecadc999aa456094982e9b7"
}