{
  "_format": "hh3-artifact-1",
  "contractName": "TuneChain",
  "sourceName": "contracts/TuneChain.sol",
  "abi": [
    {
      "inputs": [
        {
          "internalType": "address",
          "name": "_tokenAddress",
          "type": "address"
        },
        {
          "internalType": "address",
          "name": "_treasury",
          "type": "address"
        },
        {
          "internalType": "address[]",
          "name": "_admins",
          "type": "address[]"
        }
      ],
      "stateMutability": "nonpayable",
      "type": "constructor"
    },
    {
      "inputs": [],
      "name": "AccessControlBadConfirmation",
      "type": "error"
    },
    {
      "inputs": [
        {
          "internalType": "address",
          "name": "account",
          "type": "address"
        },
        {
          "internalType": "bytes32",
          "name": "neededRole",
          "type": "bytes32"
        }
      ],
      "name": "AccessControlUnauthorizedAccount",
      "type": "error"
    },
    {
      "inputs": [],
      "name": "ReentrancyGuardReentrantCall",
      "type": "error"
    },
    {
      "inputs": [
        {
          "internalType": "address",
          "name": "token",
          "type": "address"
        }
      ],
      "name": "SafeERC20FailedOperation",
      "type": "error"
    },
    {
      "anonymous": false,
      "inputs": [
        {
          "indexed": true,
          "internalType": "uint256",
          "name": "reportId",
          "type": "uint256"
        },
        {
          "indexed": false,
          "internalType": "bool",
          "name": "removed",
          "type": "bool"
        }
      ],
      "name": "ReportResolved",
      "type": "event"
    },
    {
      "anonymous": false,
      "inputs": [
        {
          "indexed": true,
          "internalType": "bytes32",
          "name": "role",
          "type": "bytes32"
        },
        {
          "indexed": true,
          "internalType": "bytes32",
          "name": "previousAdminRole",
          "type": "bytes32"
        },
        {
          "indexed": true,
          "internalType": "bytes32",
          "name": "newAdminRole",
          "type": "bytes32"
        }
      ],
      "name": "RoleAdminChanged",
      "type": "event"
    },
    {
      "anonymous": false,
      "inputs": [
        {
          "indexed": true,
          "internalType": "bytes32",
          "name": "role",
          "type": "bytes32"
        },
        {
          "indexed": true,
          "internalType": "address",
          "name": "account",
          "type": "address"
        },
        {
          "indexed": true,
          "internalType": "address",
          "name": "sender",
          "type": "address"
        }
      ],
      "name": "RoleGranted",
      "type": "event"
    },
    {
      "anonymous": false,
      "inputs": [
        {
          "indexed": true,
          "internalType": "bytes32",
          "name": "role",
          "type": "bytes32"
        },
        {
          "indexed": true,
          "internalType": "address",
          "name": "account",
          "type": "address"
        },
        {
          "indexed": true,
          "internalType": "address",
          "name": "sender",
          "type": "address"
        }
      ],
      "name": "RoleRevoked",
      "type": "event"
    },
    {
      "anonymous": false,
      "inputs": [
        {
          "indexed": true,
          "internalType": "address",
          "name": "creator",
          "type": "address"
        },
        {
          "indexed": false,
          "internalType": "uint256",
          "name": "amount",
          "type": "uint256"
        }
      ],
      "name": "TipWithdrawn",
      "type": "event"
    },
    {
      "anonymous": false,
      "inputs": [
        {
          "indexed": true,
          "internalType": "uint256",
          "name": "trackId",
          "type": "uint256"
        }
      ],
      "name": "TrackDeactivated",
      "type": "event"
    },
    {
      "anonymous": false,
      "inputs": [
        {
          "indexed": true,
          "internalType": "uint256",
          "name": "reportId",
          "type": "uint256"
        },
        {
          "indexed": true,
          "internalType": "address",
          "name": "reporter",
          "type": "address"
        },
        {
          "indexed": true,
          "internalType": "uint256",
          "name": "trackId",
          "type": "uint256"
        }
      ],
      "name": "TrackReported",
      "type": "event"
    },
    {
      "anonymous": false,
      "inputs": [
        {
          "indexed": true,
          "internalType": "uint256",
          "name": "tipId",
          "type": "uint256"
        },
        {
          "indexed": true,
          "internalType": "uint256",
          "name": "trackId",
          "type": "uint256"
        },
        {
          "indexed": true,
          "internalType": "address",
          "name": "tipper",
          "type": "address"
        },
        {
          "indexed": false,
          "internalType": "uint256",
          "name": "amount",
          "type": "uint256"
        }
      ],
      "name": "TrackTipped",
      "type": "event"
    },
    {
      "anonymous": false,
      "inputs": [
        {
          "indexed": true,
          "internalType": "uint256",
          "name": "trackId",
          "type": "uint256"
        },
        {
          "indexed": true,
          "internalType": "address",
          "name": "creator",
          "type": "address"
        },
        {
          "indexed": false,
          "internalType": "string",
          "name": "ipfsHash",
          "type": "string"
        },
        {
          "indexed": false,
          "internalType": "string",
          "name": "title",
          "type": "string"
        }
      ],
      "name": "TrackUploaded",
      "type": "event"
    },
    {
      "anonymous": false,
      "inputs": [
        {
          "indexed": false,
          "internalType": "address",
          "name": "newTreasury",
          "type": "address"
        }
      ],
      "name": "TreasuryUpdated",
      "type": "event"
    },
    {
      "inputs": [],
      "name": "ADMIN_ROLE",
      "outputs": [
        {
          "internalType": "bytes32",
          "name": "",
          "type": "bytes32"
        }
      ],
      "stateMutability": "view",
      "type": "function"
    },
    {
      "inputs": [],
      "name": "BASE_UPLOAD_FEE",
      "outputs": [
        {
          "internalType": "uint256",
          "name": "",
          "type": "uint256"
        }
      ],
      "stateMutability": "view",
      "type": "function"
    },
    {
      "inputs": [],
      "name": "DEFAULT_ADMIN_ROLE",
      "outputs": [
        {
          "internalType": "bytes32",
          "name": "",
          "type": "bytes32"
        }
      ],
      "stateMutability": "view",
      "type": "function"
    },
    {
      "inputs": [],
      "name": "ESCROW_DURATION",
      "outputs": [
        {
          "internalType": "uint256",
          "name": "",
          "type": "uint256"
        }
      ],
      "stateMutability": "view",
      "type": "function"
    },
    {
      "inputs": [],
      "name": "STAKE_AMOUNT",
      "outputs": [
        {
          "internalType": "uint256",
          "name": "",
          "type": "uint256"
        }
      ],
      "stateMutability": "view",
      "type": "function"
    },
    {
      "inputs": [
        {
          "internalType": "address",
          "name": "creator",
          "type": "address"
        }
      ],
      "name": "canWithdraw",
      "outputs": [
        {
          "internalType": "bool",
          "name": "",
          "type": "bool"
        }
      ],
      "stateMutability": "view",
      "type": "function"
    },
    {
      "inputs": [],
      "name": "getAllActiveTracks",
      "outputs": [
        {
          "components": [
            {
              "internalType": "uint256",
              "name": "trackId",
              "type": "uint256"
            },
            {
              "internalType": "address",
              "name": "creator",
              "type": "address"
            },
            {
              "internalType": "string",
              "name": "ipfsHash",
              "type": "string"
            },
            {
              "internalType": "string",
              "name": "title",
              "type": "string"
            },
            {
              "internalType": "uint256",
              "name": "totalTips",
              "type": "uint256"
            },
            {
              "internalType": "bool",
              "name": "isActive",
              "type": "bool"
            },
            {
              "internalType": "uint256",
              "name": "createdAt",
              "type": "uint256"
            }
          ],
          "internalType": "struct TuneChain.Track[]",
          "name": "",
          "type": "tuple[]"
        }
      ],
      "stateMutability": "view",
      "type": "function"
    },
    {
      "inputs": [
        {
          "internalType": "address",
          "name": "creator",
          "type": "address"
        }
      ],
      "name": "getCreatorTracks",
      "outputs": [
        {
          "internalType": "uint256[]",
          "name": "",
          "type": "uint256[]"
        }
      ],
      "stateMutability": "view",
      "type": "function"
    },
    {
      "inputs": [
        {
          "internalType": "address",
          "name": "creator",
          "type": "address"
        }
      ],
      "name": "getEscrowInfo",
      "outputs": [
        {
          "internalType": "uint256",
          "name": "balance",
          "type": "uint256"
        },
        {
          "internalType": "uint256",
          "name": "unlockTime",
          "type": "uint256"
        }
      ],
      "stateMutability": "view",
      "type": "function"
    },
    {
      "inputs": [
        {
          "internalType": "bytes32",
          "name": "role",
          "type": "bytes32"
        }
      ],
      "name": "getRoleAdmin",
      "outputs": [
        {
          "internalType": "bytes32",
          "name": "",
          "type": "bytes32"
        }
      ],
      "stateMutability": "view",
      "type": "function"
    },
    {
      "inputs": [
        {
          "internalType": "bytes32",
          "name": "role",
          "type": "bytes32"
        },
        {
          "internalType": "address",
          "name": "account",
          "type": "address"
        }
      ],
      "name": "grantRole",
      "outputs": [],
      "stateMutability": "nonpayable",
      "type": "function"
    },
    {
      "inputs": [
        {
          "internalType": "bytes32",
          "name": "role",
          "type": "bytes32"
        },
        {
          "internalType": "address",
          "name": "account",
          "type": "address"
        }
      ],
      "name": "hasRole",
      "outputs": [
        {
          "internalType": "bool",
          "name": "",
          "type": "bool"
        }
      ],
      "stateMutability": "view",
      "type": "function"
    },
    {
      "inputs": [],
      "name": "nextReportId",
      "outputs": [
        {
          "internalType": "uint256",
          "name": "",
          "type": "uint256"
        }
      ],
      "stateMutability": "view",
      "type": "function"
    },
    {
      "inputs": [],
      "name": "nextTipId",
      "outputs": [
        {
          "internalType": "uint256",
          "name": "",
          "type": "uint256"
        }
      ],
      "stateMutability": "view",
      "type": "function"
    },
    {
      "inputs": [],
      "name": "nextTrackId",
      "outputs": [
        {
          "internalType": "uint256",
          "name": "",
          "type": "uint256"
        }
      ],
      "stateMutability": "view",
      "type": "function"
    },
    {
      "inputs": [
        {
          "internalType": "address",
          "name": "tokenAddr",
          "type": "address"
        },
        {
          "internalType": "uint256",
          "name": "amount",
          "type": "uint256"
        }
      ],
      "name": "recoverTokens",
      "outputs": [],
      "stateMutability": "nonpayable",
      "type": "function"
    },
    {
      "inputs": [
        {
          "internalType": "bytes32",
          "name": "role",
          "type": "bytes32"
        },
        {
          "internalType": "address",
          "name": "callerConfirmation",
          "type": "address"
        }
      ],
      "name": "renounceRole",
      "outputs": [],
      "stateMutability": "nonpayable",
      "type": "function"
    },
    {
      "inputs": [
        {
          "internalType": "uint256",
          "name": "",
          "type": "uint256"
        }
      ],
      "name": "reportCount",
      "outputs": [
        {
          "internalType": "uint256",
          "name": "",
          "type": "uint256"
        }
      ],
      "stateMutability": "view",
      "type": "function"
    },
    {
      "inputs": [
        {
          "internalType": "uint256",
          "name": "trackId",
          "type": "uint256"
        },
        {
          "internalType": "string",
          "name": "reason",
          "type": "string"
        }
      ],
      "name": "reportTrack",
      "outputs": [],
      "stateMutability": "nonpayable",
      "type": "function"
    },
    {
      "inputs": [
        {
          "internalType": "uint256",
          "name": "",
          "type": "uint256"
        }
      ],
      "name": "reports",
      "outputs": [
        {
          "internalType": "uint256",
          "name": "reportId",
          "type": "uint256"
        },
        {
          "internalType": "address",
          "name": "reporter",
          "type": "address"
        },
        {
          "internalType": "uint256",
          "name": "trackId",
          "type": "uint256"
        },
        {
          "internalType": "string",
          "name": "reason",
          "type": "string"
        },
        {
          "internalType": "bool",
          "name": "resolved",
          "type": "bool"
        },
        {
          "internalType": "uint256",
          "name": "createdAt",
          "type": "uint256"
        }
      ],
      "stateMutability": "view",
      "type": "function"
    },
    {
      "inputs": [
        {
          "internalType": "uint256",
          "name": "reportId",
          "type": "uint256"
        },
        {
          "internalType": "bool",
          "name": "removed",
          "type": "bool"
        }
      ],
      "name": "resolveReport",
      "outputs": [],
      "stateMutability": "nonpayable",
      "type": "function"
    },
    {
      "inputs": [
        {
          "internalType": "bytes32",
          "name": "role",
          "type": "bytes32"
        },
        {
          "internalType": "address",
          "name": "account",
          "type": "address"
        }
      ],
      "name": "revokeRole",
      "outputs": [],
      "stateMutability": "nonpayable",
      "type": "function"
    },
    {
      "inputs": [
        {
          "internalType": "address",
          "name": "newTreasury",
          "type": "address"
        }
      ],
      "name": "setTreasury",
      "outputs": [],
      "stateMutability": "nonpayable",
      "type": "function"
    },
    {
      "inputs": [
        {
          "internalType": "bytes4",
          "name": "interfaceId",
          "type": "bytes4"
        }
      ],
      "name": "supportsInterface",
      "outputs": [
        {
          "internalType": "bool",
          "name": "",
          "type": "bool"
        }
      ],
      "stateMutability": "view",
      "type": "function"
    },
    {
      "inputs": [
        {
          "internalType": "uint256",
          "name": "",
          "type": "uint256"
        }
      ],
      "name": "tipRecords",
      "outputs": [
        {
          "internalType": "address",
          "name": "tipper",
          "type": "address"
        },
        {
          "internalType": "uint256",
          "name": "trackId",
          "type": "uint256"
        },
        {
          "internalType": "uint256",
          "name": "amount",
          "type": "uint256"
        },
        {
          "internalType": "uint256",
          "name": "timestamp",
          "type": "uint256"
        }
      ],
      "stateMutability": "view",
      "type": "function"
    },
    {
      "inputs": [
        {
          "internalType": "uint256",
          "name": "trackId",
          "type": "uint256"
        },
        {
          "internalType": "uint256",
          "name": "amount",
          "type": "uint256"
        }
      ],
      "name": "tipTrack",
      "outputs": [],
      "stateMutability": "nonpayable",
      "type": "function"
    },
    {
      "inputs": [
        {
          "internalType": "uint256",
          "name": "",
          "type": "uint256"
        }
      ],
      "name": "tracks",
      "outputs": [
        {
          "internalType": "uint256",
          "name": "trackId",
          "type": "uint256"
        },
        {
          "internalType": "address",
          "name": "creator",
          "type": "address"
        },
        {
          "internalType": "string",
          "name": "ipfsHash",
          "type": "string"
        },
        {
          "internalType": "string",
          "name": "title",
          "type": "string"
        },
        {
          "internalType": "uint256",
          "name": "totalTips",
          "type": "uint256"
        },
        {
          "internalType": "bool",
          "name": "isActive",
          "type": "bool"
        },
        {
          "internalType": "uint256",
          "name": "createdAt",
          "type": "uint256"
        }
      ],
      "stateMutability": "view",
      "type": "function"
    },
    {
      "inputs": [],
      "name": "treasury",
      "outputs": [
        {
          "internalType": "address",
          "name": "",
          "type": "address"
        }
      ],
      "stateMutability": "view",
      "type": "function"
    },
    {
      "inputs": [],
      "name": "tuneToken",
      "outputs": [
        {
          "internalType": "contract IERC20",
          "name": "",
          "type": "address"
        }
      ],
      "stateMutability": "view",
      "type": "function"
    },
    {
      "inputs": [
        {
          "internalType": "string",
          "name": "ipfsHash",
          "type": "string"
        },
        {
          "internalType": "string",
          "name": "title",
          "type": "string"
        }
      ],
      "name": "uploadTrack",
      "outputs": [],
      "stateMutability": "nonpayable",
      "type": "function"
    },
    {
      "inputs": [],
      "name": "withdrawTips",
      "outputs": [],
      "stateMutability": "nonpayable",
      "type": "function"
    }
  ],
  "bytecode": "0x608060405234801561000f575f5ffd5b506040516142363803806142368339818101604052810190610031919061053a565b600161004f6100446101ee60201b60201c565b61021760201b60201c565b5f01819055508260015f6101000a81548173ffffffffffffffffffffffffffffffffffffffff021916908373ffffffffffffffffffffffffffffffffffffffff16021790555081600b5f6101000a81548173ffffffffffffffffffffffffffffffffffffffff021916908373ffffffffffffffffffffffffffffffffffffffff1602179055506100e75f5f1b3361022060201b60201c565b506101187fa49807205ce4d355092ef5a8a18f56e8913cf4a201fbe287825b095693c217753361022060201b60201c565b505f5f90505b81518110156101cd575f73ffffffffffffffffffffffffffffffffffffffff16828281518110610151576101506105a6565b5b602002602001015173ffffffffffffffffffffffffffffffffffffffff16146101c0576101be7fa49807205ce4d355092ef5a8a18f56e8913cf4a201fbe287825b095693c217758383815181106101ab576101aa6105a6565b5b602002602001015161022060201b60201c565b505b808060010191505061011e565b506001600281905550600160038190555060016004819055505050506105d3565b5f7f9b779b17422d0df92223018b32b4d1fa46e071723d6817e2486d003becc55f005f1b905090565b5f819050919050565b5f610231838361031560201b60201c565b61030b5760015f5f8581526020019081526020015f205f015f8473ffffffffffffffffffffffffffffffffffffffff1673ffffffffffffffffffffffffffffffffffffffff1681526020019081526020015f205f6101000a81548160ff0219169083151502179055506102a861037860201b60201c565b73ffffffffffffffffffffffffffffffffffffffff168273ffffffffffffffffffffffffffffffffffffffff16847f2f8788117e7eff1d82e926ec794901d17c78024a50270940304540a733656f0d60405160405180910390a46001905061030f565b5f90505b92915050565b5f5f5f8481526020019081526020015f205f015f8373ffffffffffffffffffffffffffffffffffffffff1673ffffffffffffffffffffffffffffffffffffffff1681526020019081526020015f205f9054906101000a900460ff16905092915050565b5f33905090565b5f604051905090565b5f5ffd5b5f5ffd5b5f73ffffffffffffffffffffffffffffffffffffffff82169050919050565b5f6103b982610390565b9050919050565b6103c9816103af565b81146103d3575f5ffd5b50565b5f815190506103e4816103c0565b92915050565b5f5ffd5b5f601f19601f8301169050919050565b7f4e487b71000000000000000000000000000000000000000000000000000000005f52604160045260245ffd5b610434826103ee565b810181811067ffffffffffffffff82111715610453576104526103fe565b5b80604052505050565b5f61046561037f565b9050610471828261042b565b919050565b5f67ffffffffffffffff8211156104905761048f6103fe565b5b602082029050602081019050919050565b5f5ffd5b5f6104b76104b284610476565b61045c565b905080838252602082019050602084028301858111156104da576104d96104a1565b5b835b8181101561050357806104ef88826103d6565b8452602084019350506020810190506104dc565b5050509392505050565b5f82601f830112610521576105206103ea565b5b81516105318482602086016104a5565b91505092915050565b5f5f5f6060848603121561055157610550610388565b5b5f61055e868287016103d6565b935050602061056f868287016103d6565b925050604084015167ffffffffffffffff8111156105905761058f61038c565b5b61059c8682870161050d565b9150509250925092565b7f4e487b71000000000000000000000000000000000000000000000000000000005f52603260045260245ffd5b613c56806105e05f395ff3fe608060405234801561000f575f5ffd5b50600436106101e3575f3560e01c80638fa823fa1161010d578063acc9a5a2116100a0578063dda82bdd1161006f578063dda82bdd146105a0578063e626dd9c146105d0578063f0f44260146105ec578063faf5625f14610608576101e3565b8063acc9a5a214610515578063b91b6b6614610531578063c942adf71461054f578063d547741f14610584576101e3565b8063a6efccf9116100dc578063a6efccf91461049f578063a6f5765b146104bd578063a72024c6146104d9578063a95011b4146104f7576101e3565b80638fa823fa146103fd57806391d148541461041b578063a217fddf1461044b578063a2e3458614610469576101e3565b80633aaa74b2116101855780636283128a116101545780636283128a146103875780636e79bbf6146103a357806375b238fc146103c15780638d54df2d146103df576101e3565b80633aaa74b2146102fe5780634a57db6014610308578063502a8a951461033857806361d027b314610369576101e3565b8063248a9ca3116101c1578063248a9ca3146102635780632f2ff15d14610293578063363198c6146102af57806336568abe146102e2576101e3565b806301ffc9a7146101e7578063069c9fae1461021757806319262d3014610233575b5f5ffd5b61020160048036038101906101fc9190612770565b610626565b60405161020e91906127b5565b60405180910390f35b610231600480360381019061022c919061285b565b61069f565b005b61024d60048036038101906102489190612899565b61078b565b60405161025a91906127b5565b60405180910390f35b61027d600480360381019061027891906128f7565b61081c565b60405161028a9190612931565b60405180910390f35b6102ad60048036038101906102a8919061294a565b610838565b005b6102c960048036038101906102c49190612988565b61085a565b6040516102d994939291906129d1565b60405180910390f35b6102fc60048036038101906102f7919061294a565b6108a5565b005b610306610920565b005b610322600480360381019061031d9190612899565b610b54565b60405161032f9190612acb565b60405180910390f35b610352600480360381019061034d9190612899565b610d14565b604051610360929190612aeb565b60405180910390f35b610371610d9b565b60405161037e9190612b12565b60405180910390f35b6103a1600480360381019061039c9190612b2b565b610dc0565b005b6103ab611137565b6040516103b89190612b69565b60405180910390f35b6103c961113d565b6040516103d69190612931565b60405180910390f35b6103e7611161565b6040516103f49190612bdd565b60405180910390f35b610405611186565b6040516104129190612ddf565b60405180910390f35b6104356004803603810190610430919061294a565b611495565b60405161044291906127b5565b60405180910390f35b6104536114f8565b6040516104609190612931565b60405180910390f35b610483600480360381019061047e9190612988565b6114fe565b6040516104969796959493929190612e47565b60405180910390f35b6104a7611673565b6040516104b49190612b69565b60405180910390f35b6104d760048036038101906104d29190612eec565b61167a565b005b6104e16119e3565b6040516104ee9190612b69565b60405180910390f35b6104ff6119e9565b60405161050c9190612b69565b60405180910390f35b61052f600480360381019061052a9190613056565b6119f5565b005b610539611c82565b6040516105469190612b69565b60405180910390f35b61056960048036038101906105649190612988565b611c88565b60405161057b969594939291906130cc565b60405180910390f35b61059e6004803603810190610599919061294a565b611d71565b005b6105ba60048036038101906105b59190612988565b611d93565b6040516105c79190612b69565b60405180910390f35b6105ea60048036038101906105e59190613132565b611da8565b005b61060660048036038101906106019190612899565b6120cc565b005b6106106121c1565b60405161061d9190612b69565b60405180910390f35b5f7f7965db0b000000000000000000000000000000000000000000000000000000007bffffffffffffffffffffffffffffffffffffffffffffffffffffffff1916827bffffffffffffffffffffffffffffffffffffffffffffffffffffffff191614806106985750610697826121cd565b5b9050919050565b5f5f1b6106ab81612236565b60015f9054906101000a900473ffffffffffffffffffffffffffffffffffffffff1673ffffffffffffffffffffffffffffffffffffffff168373ffffffffffffffffffffffffffffffffffffffff160361073a576040517f08c379a0000000000000000000000000000000000000000000000000000000008152600401610731906131d6565b60405180910390fd5b610786600b5f9054906101000a900473ffffffffffffffffffffffffffffffffffffffff16838573ffffffffffffffffffffffffffffffffffffffff1661224a9092919063ffffffff16565b505050565b5f5f60095f8473ffffffffffffffffffffffffffffffffffffffff1673ffffffffffffffffffffffffffffffffffffffff1681526020019081526020015f20541180156108155750600a5f8373ffffffffffffffffffffffffffffffffffffffff1673ffffffffffffffffffffffffffffffffffffffff1681526020019081526020015f20544210155b9050919050565b5f5f5f8381526020019081526020015f20600101549050919050565b6108418261081c565b61084a81612236565b610854838361229d565b50505050565b6006602052805f5260405f205f91509050805f015f9054906101000a900473ffffffffffffffffffffffffffffffffffffffff16908060010154908060020154908060030154905084565b6108ad612386565b73ffffffffffffffffffffffffffffffffffffffff168173ffffffffffffffffffffffffffffffffffffffff1614610911576040517f6697b23200000000000000000000000000000000000000000000000000000000815260040160405180910390fd5b61091b828261238d565b505050565b610928612476565b5f60095f3373ffffffffffffffffffffffffffffffffffffffff1673ffffffffffffffffffffffffffffffffffffffff1681526020019081526020015f205490505f81116109ab576040517f08c379a00000000000000000000000000000000000000000000000000000000081526004016109a29061323e565b60405180910390fd5b600a5f3373ffffffffffffffffffffffffffffffffffffffff1673ffffffffffffffffffffffffffffffffffffffff1681526020019081526020015f2054421015610a2b576040517f08c379a0000000000000000000000000000000000000000000000000000000008152600401610a22906132cc565b60405180910390fd5b5f60095f3373ffffffffffffffffffffffffffffffffffffffff1673ffffffffffffffffffffffffffffffffffffffff1681526020019081526020015f20819055505f600a5f3373ffffffffffffffffffffffffffffffffffffffff1673ffffffffffffffffffffffffffffffffffffffff1681526020019081526020015f2081905550610afb338260015f9054906101000a900473ffffffffffffffffffffffffffffffffffffffff1673ffffffffffffffffffffffffffffffffffffffff1661224a9092919063ffffffff16565b3373ffffffffffffffffffffffffffffffffffffffff167fb90a88a5e6d88aa2baf23e87edd29a157df95572bb85a56cdaeaf0b00b548d1c82604051610b419190612b69565b60405180910390a250610b52612498565b565b60605f6001600254610b669190613317565b90505f5f90505f600190505b828111610c01578473ffffffffffffffffffffffffffffffffffffffff1660055f8381526020019081526020015f206001015f9054906101000a900473ffffffffffffffffffffffffffffffffffffffff1673ffffffffffffffffffffffffffffffffffffffff1603610bee578180610bea9061334a565b9250505b8080610bf99061334a565b915050610b72565b505f8167ffffffffffffffff811115610c1d57610c1c612f32565b5b604051908082528060200260200182016040528015610c4b5781602001602082028036833780820191505090505b5090505f5f90505f600190505b848111610d07578673ffffffffffffffffffffffffffffffffffffffff1660055f8381526020019081526020015f206001015f9054906101000a900473ffffffffffffffffffffffffffffffffffffffff1673ffffffffffffffffffffffffffffffffffffffff1603610cf45780838381518110610cd957610cd8613391565b5b6020026020010181815250508180610cf09061334a565b9250505b8080610cff9061334a565b915050610c58565b5081945050505050919050565b5f5f60095f8473ffffffffffffffffffffffffffffffffffffffff1673ffffffffffffffffffffffffffffffffffffffff1681526020019081526020015f2054600a5f8573ffffffffffffffffffffffffffffffffffffffff1673ffffffffffffffffffffffffffffffffffffffff1681526020019081526020015f205491509150915091565b600b5f9054906101000a900473ffffffffffffffffffffffffffffffffffffffff1681565b815f81118015610dd1575060025481105b610e10576040517f08c379a0000000000000000000000000000000000000000000000000000000008152600401610e0790613408565b60405180910390fd5b8260055f8281526020019081526020015f206005015f9054906101000a900460ff16610e71576040517f08c379a0000000000000000000000000000000000000000000000000000000008152600401610e6890613470565b60405180910390fd5b610e79612476565b5f8311610ebb576040517f08c379a0000000000000000000000000000000000000000000000000000000008152600401610eb2906134d8565b60405180910390fd5b610f0933308560015f9054906101000a900473ffffffffffffffffffffffffffffffffffffffff1673ffffffffffffffffffffffffffffffffffffffff166124b2909392919063ffffffff16565b5f600354905060035f815480929190610f219061334a565b919050555060405180608001604052803373ffffffffffffffffffffffffffffffffffffffff1681526020018681526020018581526020014281525060065f8381526020019081526020015f205f820151815f015f6101000a81548173ffffffffffffffffffffffffffffffffffffffff021916908373ffffffffffffffffffffffffffffffffffffffff1602179055506020820151816001015560408201518160020155606082015181600301559050508360055f8781526020019081526020015f206004015f828254610ff691906134f6565b925050819055505f60055f8781526020019081526020015f206001015f9054906101000a900473ffffffffffffffffffffffffffffffffffffffff1690508460095f8373ffffffffffffffffffffffffffffffffffffffff1673ffffffffffffffffffffffffffffffffffffffff1681526020019081526020015f205f82825461108091906134f6565b92505081905550620151804261109691906134f6565b600a5f8373ffffffffffffffffffffffffffffffffffffffff1673ffffffffffffffffffffffffffffffffffffffff1681526020019081526020015f20819055503373ffffffffffffffffffffffffffffffffffffffff1686837f084200d41f9e9f2402c03fdaab71485ff3204d0618798b8986f7c2755ca78b938860405161111f9190612b69565b60405180910390a45050611131612498565b50505050565b60045481565b7fa49807205ce4d355092ef5a8a18f56e8913cf4a201fbe287825b095693c2177581565b60015f9054906101000a900473ffffffffffffffffffffffffffffffffffffffff1681565b60605f60016002546111989190613317565b90505f5f90505f600190505b8281116111f35760055f8281526020019081526020015f206005015f9054906101000a900460ff16156111e05781806111dc9061334a565b9250505b80806111eb9061334a565b9150506111a4565b505f8167ffffffffffffffff81111561120f5761120e612f32565b5b60405190808252806020026020018201604052801561124857816020015b6112356126ba565b81526020019060019003908161122d5790505b5090505f5f90505f600190505b84811161148a5760055f8281526020019081526020015f206005015f9054906101000a900460ff16156114775760055f8281526020019081526020015f206040518060e00160405290815f8201548152602001600182015f9054906101000a900473ffffffffffffffffffffffffffffffffffffffff1673ffffffffffffffffffffffffffffffffffffffff1673ffffffffffffffffffffffffffffffffffffffff16815260200160028201805461130c90613556565b80601f016020809104026020016040519081016040528092919081815260200182805461133890613556565b80156113835780601f1061135a57610100808354040283529160200191611383565b820191905f5260205f20905b81548152906001019060200180831161136657829003601f168201915b5050505050815260200160038201805461139c90613556565b80601f01602080910402602001604051908101604052809291908181526020018280546113c890613556565b80156114135780601f106113ea57610100808354040283529160200191611413565b820191905f5260205f20905b8154815290600101906020018083116113f657829003601f168201915b5050505050815260200160048201548152602001600582015f9054906101000a900460ff1615151515815260200160068201548152505083838151811061145d5761145c613391565b5b602002602001018190525081806114739061334a565b9250505b80806114829061334a565b915050611255565b508194505050505090565b5f5f5f8481526020019081526020015f205f015f8373ffffffffffffffffffffffffffffffffffffffff1673ffffffffffffffffffffffffffffffffffffffff1681526020019081526020015f205f9054906101000a900460ff16905092915050565b5f5f1b81565b6005602052805f5260405f205f91509050805f015490806001015f9054906101000a900473ffffffffffffffffffffffffffffffffffffffff169080600201805461154890613556565b80601f016020809104026020016040519081016040528092919081815260200182805461157490613556565b80156115bf5780601f10611596576101008083540402835291602001916115bf565b820191905f5260205f20905b8154815290600101906020018083116115a257829003601f168201915b5050505050908060030180546115d490613556565b80601f016020809104026020016040519081016040528092919081815260200182805461160090613556565b801561164b5780601f106116225761010080835404028352916020019161164b565b820191905f5260205f20905b81548152906001019060200180831161162e57829003601f168201915b505050505090806004015490806005015f9054906101000a900460ff16908060060154905087565b6201518081565b7fa49807205ce4d355092ef5a8a18f56e8913cf4a201fbe287825b095693c217756116a481612236565b6116ac612476565b5f831180156116bc575060045483105b6116fb576040517f08c379a00000000000000000000000000000000000000000000000000000000081526004016116f2906135d0565b60405180910390fd5b5f60075f8581526020019081526020015f209050806004015f9054906101000a900460ff1615611760576040517f08c379a000000000000000000000000000000000000000000000000000000000815260040161175790613638565b60405180910390fd5b6001816004015f6101000a81548160ff021916908315150217905550821561199d575f816002015490505f60055f8381526020019081526020015f209050806005015f9054906101000a900460ff166117ee576040517f08c379a00000000000000000000000000000000000000000000000000000000081526004016117e5906136c6565b60405180910390fd5b5f816005015f6101000a81548160ff0219169083151502179055505f816001015f9054906101000a900473ffffffffffffffffffffffffffffffffffffffff1690505f60095f8373ffffffffffffffffffffffffffffffffffffffff1673ffffffffffffffffffffffffffffffffffffffff1681526020019081526020015f205490505f81111561196b575f60095f8473ffffffffffffffffffffffffffffffffffffffff1673ffffffffffffffffffffffffffffffffffffffff1681526020019081526020015f20819055505f600a5f8473ffffffffffffffffffffffffffffffffffffffff1673ffffffffffffffffffffffffffffffffffffffff1681526020019081526020015f208190555061196a600b5f9054906101000a900473ffffffffffffffffffffffffffffffffffffffff168260015f9054906101000a900473ffffffffffffffffffffffffffffffffffffffff1673ffffffffffffffffffffffffffffffffffffffff1661224a9092919063ffffffff16565b5b837f04425afbe1dffa4e402885b302fd71a001e144d2cc2a7474b4fb14aab5ac9dd160405160405180910390a2505050505b837fc376607d08aab8e39afddbd149fcbefac7c69dcb371a8795626693e5a5a5d10a846040516119cd91906127b5565b60405180910390a2506119de612498565b505050565b60025481565b678ac7230489e8000081565b6119fd612476565b5f825111611a40576040517f08c379a0000000000000000000000000000000000000000000000000000000008152600401611a3790613754565b60405180910390fd5b5f815111611a83576040517f08c379a0000000000000000000000000000000000000000000000000000000008152600401611a7a906137bc565b60405180910390fd5b611afa33600b5f9054906101000a900473ffffffffffffffffffffffffffffffffffffffff16678ac7230489e8000060015f9054906101000a900473ffffffffffffffffffffffffffffffffffffffff1673ffffffffffffffffffffffffffffffffffffffff166124b2909392919063ffffffff16565b5f600254905060025f815480929190611b129061334a565b91905055506040518060e001604052808281526020013373ffffffffffffffffffffffffffffffffffffffff1681526020018481526020018381526020015f81526020016001151581526020014281525060055f8381526020019081526020015f205f820151815f01556020820151816001015f6101000a81548173ffffffffffffffffffffffffffffffffffffffff021916908373ffffffffffffffffffffffffffffffffffffffff1602179055506040820151816002019081611bd79190613971565b506060820151816003019081611bed9190613971565b506080820151816004015560a0820151816005015f6101000a81548160ff02191690831515021790555060c082015181600601559050503373ffffffffffffffffffffffffffffffffffffffff16817ff8069940c0f36b58363b22325ab081c14c9b7e40aeaf90c9898e16c530be558e8585604051611c6d929190613a40565b60405180910390a350611c7e612498565b5050565b60035481565b6007602052805f5260405f205f91509050805f015490806001015f9054906101000a900473ffffffffffffffffffffffffffffffffffffffff1690806002015490806003018054611cd890613556565b80601f0160208091040260200160405190810160405280929190818152602001828054611d0490613556565b8015611d4f5780601f10611d2657610100808354040283529160200191611d4f565b820191905f5260205f20905b815481529060010190602001808311611d3257829003601f168201915b505050505090806004015f9054906101000a900460ff16908060050154905086565b611d7a8261081c565b611d8381612236565b611d8d838361238d565b50505050565b6008602052805f5260405f205f915090505481565b815f81118015611db9575060025481105b611df8576040517f08c379a0000000000000000000000000000000000000000000000000000000008152600401611def90613408565b60405180910390fd5b8260055f8281526020019081526020015f206005015f9054906101000a900460ff16611e59576040517f08c379a0000000000000000000000000000000000000000000000000000000008152600401611e5090613470565b60405180910390fd5b611e61612476565b60055f8581526020019081526020015f206001015f9054906101000a900473ffffffffffffffffffffffffffffffffffffffff1673ffffffffffffffffffffffffffffffffffffffff163373ffffffffffffffffffffffffffffffffffffffff1603611f02576040517f08c379a0000000000000000000000000000000000000000000000000000000008152600401611ef990613ae5565b60405180910390fd5b5f835111611f45576040517f08c379a0000000000000000000000000000000000000000000000000000000008152600401611f3c90613b73565b60405180910390fd5b5f600454905060045f815480929190611f5d9061334a565b91905055506040518060c001604052808281526020013373ffffffffffffffffffffffffffffffffffffffff1681526020018681526020018581526020015f151581526020014281525060075f8381526020019081526020015f205f820151815f01556020820151816001015f6101000a81548173ffffffffffffffffffffffffffffffffffffffff021916908373ffffffffffffffffffffffffffffffffffffffff1602179055506040820151816002015560608201518160030190816120259190613971565b506080820151816004015f6101000a81548160ff02191690831515021790555060a0820151816005015590505060085f8681526020019081526020015f205f8154809291906120739061334a565b9190505550843373ffffffffffffffffffffffffffffffffffffffff16827f675c483d06a61d8de9528374d2e47751ac67075ba8adcd28f58e16748faaa71660405160405180910390a4506120c6612498565b50505050565b5f5f1b6120d881612236565b5f73ffffffffffffffffffffffffffffffffffffffff168273ffffffffffffffffffffffffffffffffffffffff1603612146576040517f08c379a000000000000000000000000000000000000000000000000000000000815260040161213d90613bdb565b60405180910390fd5b81600b5f6101000a81548173ffffffffffffffffffffffffffffffffffffffff021916908373ffffffffffffffffffffffffffffffffffffffff1602179055507f7dae230f18360d76a040c81f050aa14eb9d6dc7901b20fc5d855e2a20fe814d1826040516121b59190612b12565b60405180910390a15050565b674563918244f4000081565b5f7f01ffc9a7000000000000000000000000000000000000000000000000000000007bffffffffffffffffffffffffffffffffffffffffffffffffffffffff1916827bffffffffffffffffffffffffffffffffffffffffffffffffffffffff1916149050919050565b61224781612242612386565b612507565b50565b6122578383836001612558565b61229857826040517f5274afe700000000000000000000000000000000000000000000000000000000815260040161228f9190612b12565b60405180910390fd5b505050565b5f6122a88383611495565b61237c5760015f5f8581526020019081526020015f205f015f8473ffffffffffffffffffffffffffffffffffffffff1673ffffffffffffffffffffffffffffffffffffffff1681526020019081526020015f205f6101000a81548160ff021916908315150217905550612319612386565b73ffffffffffffffffffffffffffffffffffffffff168273ffffffffffffffffffffffffffffffffffffffff16847f2f8788117e7eff1d82e926ec794901d17c78024a50270940304540a733656f0d60405160405180910390a460019050612380565b5f90505b92915050565b5f33905090565b5f6123988383611495565b1561246c575f5f5f8581526020019081526020015f205f015f8473ffffffffffffffffffffffffffffffffffffffff1673ffffffffffffffffffffffffffffffffffffffff1681526020019081526020015f205f6101000a81548160ff021916908315150217905550612409612386565b73ffffffffffffffffffffffffffffffffffffffff168273ffffffffffffffffffffffffffffffffffffffff16847ff6391f5c32d9c69d2a47ea670b442974b53935d1edc7fd64eb21e047a839171b60405160405180910390a460019050612470565b5f90505b92915050565b61247e6125ba565b600261249061248b6125fb565b612624565b5f0181905550565b60016124aa6124a56125fb565b612624565b5f0181905550565b6124c084848484600161262d565b61250157836040517f5274afe70000000000000000000000000000000000000000000000000000000081526004016124f89190612b12565b60405180910390fd5b50505050565b6125118282611495565b6125545780826040517fe2517d3f00000000000000000000000000000000000000000000000000000000815260040161254b929190613bf9565b60405180910390fd5b5050565b5f5f63a9059cbb60e01b9050604051815f525f1960601c86166004528460245260205f60445f5f8b5af1925060015f511483166125ac5783831516156125a0573d5f823e3d81fd5b5f873b113d1516831692505b806040525050949350505050565b6125c261269e565b156125f9576040517f3ee5aeb500000000000000000000000000000000000000000000000000000000815260040160405180910390fd5b565b5f7f9b779b17422d0df92223018b32b4d1fa46e071723d6817e2486d003becc55f005f1b905090565b5f819050919050565b5f5f6323b872dd60e01b9050604051815f525f1960601c87166004525f1960601c86166024528460445260205f60645f5f8c5af1925060015f5114831661268b57838315161561267f573d5f823e3d81fd5b5f883b113d1516831692505b806040525f606052505095945050505050565b5f60026126b16126ac6125fb565b612624565b5f015414905090565b6040518060e001604052805f81526020015f73ffffffffffffffffffffffffffffffffffffffff16815260200160608152602001606081526020015f81526020015f151581526020015f81525090565b5f604051905090565b5f5ffd5b5f5ffd5b5f7fffffffff0000000000000000000000000000000000000000000000000000000082169050919050565b61274f8161271b565b8114612759575f5ffd5b50565b5f8135905061276a81612746565b92915050565b5f6020828403121561278557612784612713565b5b5f6127928482850161275c565b91505092915050565b5f8115159050919050565b6127af8161279b565b82525050565b5f6020820190506127c85f8301846127a6565b92915050565b5f73ffffffffffffffffffffffffffffffffffffffff82169050919050565b5f6127f7826127ce565b9050919050565b612807816127ed565b8114612811575f5ffd5b50565b5f81359050612822816127fe565b92915050565b5f819050919050565b61283a81612828565b8114612844575f5ffd5b50565b5f8135905061285581612831565b92915050565b5f5f6040838503121561287157612870612713565b5b5f61287e85828601612814565b925050602061288f85828601612847565b9150509250929050565b5f602082840312156128ae576128ad612713565b5b5f6128bb84828501612814565b91505092915050565b5f819050919050565b6128d6816128c4565b81146128e0575f5ffd5b50565b5f813590506128f1816128cd565b92915050565b5f6020828403121561290c5761290b612713565b5b5f612919848285016128e3565b91505092915050565b61292b816128c4565b82525050565b5f6020820190506129445f830184612922565b92915050565b5f5f604083850312156129605761295f612713565b5b5f61296d858286016128e3565b925050602061297e85828601612814565b9150509250929050565b5f6020828403121561299d5761299c612713565b5b5f6129aa84828501612847565b91505092915050565b6129bc816127ed565b82525050565b6129cb81612828565b82525050565b5f6080820190506129e45f8301876129b3565b6129f160208301866129c2565b6129fe60408301856129c2565b612a0b60608301846129c2565b95945050505050565b5f81519050919050565b5f82825260208201905092915050565b5f819050602082019050919050565b612a4681612828565b82525050565b5f612a578383612a3d565b60208301905092915050565b5f602082019050919050565b5f612a7982612a14565b612a838185612a1e565b9350612a8e83612a2e565b805f5b83811015612abe578151612aa58882612a4c565b9750612ab083612a63565b925050600181019050612a91565b5085935050505092915050565b5f6020820190508181035f830152612ae38184612a6f565b905092915050565b5f604082019050612afe5f8301856129c2565b612b0b60208301846129c2565b9392505050565b5f602082019050612b255f8301846129b3565b92915050565b5f5f60408385031215612b4157612b40612713565b5b5f612b4e85828601612847565b9250506020612b5f85828601612847565b9150509250929050565b5f602082019050612b7c5f8301846129c2565b92915050565b5f819050919050565b5f612ba5612ba0612b9b846127ce565b612b82565b6127ce565b9050919050565b5f612bb682612b8b565b9050919050565b5f612bc782612bac565b9050919050565b612bd781612bbd565b82525050565b5f602082019050612bf05f830184612bce565b92915050565b5f81519050919050565b5f82825260208201905092915050565b5f819050602082019050919050565b612c28816127ed565b82525050565b5f81519050919050565b5f82825260208201905092915050565b8281835e5f83830152505050565b5f601f19601f8301169050919050565b5f612c7082612c2e565b612c7a8185612c38565b9350612c8a818560208601612c48565b612c9381612c56565b840191505092915050565b612ca78161279b565b82525050565b5f60e083015f830151612cc25f860182612a3d565b506020830151612cd56020860182612c1f565b5060408301518482036040860152612ced8282612c66565b91505060608301518482036060860152612d078282612c66565b9150506080830151612d1c6080860182612a3d565b5060a0830151612d2f60a0860182612c9e565b5060c0830151612d4260c0860182612a3d565b508091505092915050565b5f612d588383612cad565b905092915050565b5f602082019050919050565b5f612d7682612bf6565b612d808185612c00565b935083602082028501612d9285612c10565b805f5b85811015612dcd5784840389528151612dae8582612d4d565b9450612db983612d60565b925060208a01995050600181019050612d95565b50829750879550505050505092915050565b5f6020820190508181035f830152612df78184612d6c565b905092915050565b5f82825260208201905092915050565b5f612e1982612c2e565b612e238185612dff565b9350612e33818560208601612c48565b612e3c81612c56565b840191505092915050565b5f60e082019050612e5a5f83018a6129c2565b612e6760208301896129b3565b8181036040830152612e798188612e0f565b90508181036060830152612e8d8187612e0f565b9050612e9c60808301866129c2565b612ea960a08301856127a6565b612eb660c08301846129c2565b98975050505050505050565b612ecb8161279b565b8114612ed5575f5ffd5b50565b5f81359050612ee681612ec2565b92915050565b5f5f60408385031215612f0257612f01612713565b5b5f612f0f85828601612847565b9250506020612f2085828601612ed8565b9150509250929050565b5f5ffd5b5f5ffd5b7f4e487b71000000000000000000000000000000000000000000000000000000005f52604160045260245ffd5b612f6882612c56565b810181811067ffffffffffffffff82111715612f8757612f86612f32565b5b80604052505050565b5f612f9961270a565b9050612fa58282612f5f565b919050565b5f67ffffffffffffffff821115612fc457612fc3612f32565b5b612fcd82612c56565b9050602081019050919050565b828183375f83830152505050565b5f612ffa612ff584612faa565b612f90565b90508281526020810184848401111561301657613015612f2e565b5b613021848285612fda565b509392505050565b5f82601f83011261303d5761303c612f2a565b5b813561304d848260208601612fe8565b91505092915050565b5f5f6040838503121561306c5761306b612713565b5b5f83013567ffffffffffffffff81111561308957613088612717565b5b61309585828601613029565b925050602083013567ffffffffffffffff8111156130b6576130b5612717565b5b6130c285828601613029565b9150509250929050565b5f60c0820190506130df5f8301896129c2565b6130ec60208301886129b3565b6130f960408301876129c2565b818103606083015261310b8186612e0f565b905061311a60808301856127a6565b61312760a08301846129c2565b979650505050505050565b5f5f6040838503121561314857613147612713565b5b5f61315585828601612847565b925050602083013567ffffffffffffffff81111561317657613175612717565b5b61318285828601613029565b9150509250929050565b7f54756e65436861696e3a2063616e6e6f74207265636f766572205443540000005f82015250565b5f6131c0601d83612dff565b91506131cb8261318c565b602082019050919050565b5f6020820190508181035f8301526131ed816131b4565b9050919050565b7f54756e65436861696e3a206e6f207469707320746f20776974686472617700005f82015250565b5f613228601e83612dff565b9150613233826131f4565b602082019050919050565b5f6020820190508181035f8301526132558161321c565b9050919050565b7f54756e65436861696e3a20657363726f77207374696c6c206c6f636b656420285f8201527f7761697420323468206166746572206c61737420746970290000000000000000602082015250565b5f6132b6603883612dff565b91506132c18261325c565b604082019050919050565b5f6020820190508181035f8301526132e3816132aa565b9050919050565b7f4e487b71000000000000000000000000000000000000000000000000000000005f52601160045260245ffd5b5f61332182612828565b915061332c83612828565b9250828203905081811115613344576133436132ea565b5b92915050565b5f61335482612828565b91507fffffffffffffffffffffffffffffffffffffffffffffffffffffffffffffffff8203613386576133856132ea565b5b600182019050919050565b7f4e487b71000000000000000000000000000000000000000000000000000000005f52603260045260245ffd5b7f54756e65436861696e3a20747261636b20646f6573206e6f74206578697374005f82015250565b5f6133f2601f83612dff565b91506133fd826133be565b602082019050919050565b5f6020820190508181035f83015261341f816133e6565b9050919050565b7f54756e65436861696e3a20747261636b206973206e6f742061637469766500005f82015250565b5f61345a601e83612dff565b915061346582613426565b602082019050919050565b5f6020820190508181035f8301526134878161344e565b9050919050565b7f54756e65436861696e3a20616d6f756e74206d757374206265203e20300000005f82015250565b5f6134c2601d83612dff565b91506134cd8261348e565b602082019050919050565b5f6020820190508181035f8301526134ef816134b6565b9050919050565b5f61350082612828565b915061350b83612828565b9250828201905080821115613523576135226132ea565b5b92915050565b7f4e487b71000000000000000000000000000000000000000000000000000000005f52602260045260245ffd5b5f600282049050600182168061356d57607f821691505b6020821081036135805761357f613529565b5b50919050565b7f54756e65436861696e3a207265706f727420646f6573206e6f742065786973745f82015250565b5f6135ba602083612dff565b91506135c582613586565b602082019050919050565b5f6020820190508181035f8301526135e7816135ae565b9050919050565b7f54756e65436861696e3a20616c7265616479207265736f6c76656400000000005f82015250565b5f613622601b83612dff565b915061362d826135ee565b602082019050919050565b5f6020820190508181035f83015261364f81613616565b9050919050565b7f54756e65436861696e3a20747261636b20616c726561647920646561637469765f8201527f6174656400000000000000000000000000000000000000000000000000000000602082015250565b5f6136b0602483612dff565b91506136bb82613656565b604082019050919050565b5f6020820190508181035f8301526136dd816136a4565b9050919050565b7f54756e65436861696e3a2069706673486173682063616e6e6f7420626520656d5f8201527f7074790000000000000000000000000000000000000000000000000000000000602082015250565b5f61373e602383612dff565b9150613749826136e4565b604082019050919050565b5f6020820190508181035f83015261376b81613732565b9050919050565b7f54756e65436861696e3a207469746c652063616e6e6f7420626520656d7074795f82015250565b5f6137a6602083612dff565b91506137b182613772565b602082019050919050565b5f6020820190508181035f8301526137d38161379a565b9050919050565b5f819050815f5260205f209050919050565b5f6020601f8301049050919050565b5f82821b905092915050565b5f600883026138367fffffffffffffffffffffffffffffffffffffffffffffffffffffffffffffffff826137fb565b61384086836137fb565b95508019841693508086168417925050509392505050565b5f61387261386d61386884612828565b612b82565b612828565b9050919050565b5f819050919050565b61388b83613858565b61389f61389782613879565b848454613807565b825550505050565b5f5f905090565b6138b66138a7565b6138c1818484613882565b505050565b5b818110156138e4576138d95f826138ae565b6001810190506138c7565b5050565b601f821115613929576138fa816137da565b613903846137ec565b81016020851015613912578190505b61392661391e856137ec565b8301826138c6565b50505b505050565b5f82821c905092915050565b5f6139495f198460080261392e565b1980831691505092915050565b5f613961838361393a565b9150826002028217905092915050565b61397a82612c2e565b67ffffffffffffffff81111561399357613992612f32565b5b61399d8254613556565b6139a88282856138e8565b5f60209050601f8311600181146139d9575f84156139c7578287015190505b6139d18582613956565b865550613a38565b601f1984166139e7866137da565b5f5b82811015613a0e578489015182556001820191506020850194506020810190506139e9565b86831015613a2b5784890151613a27601f89168261393a565b8355505b6001600288020188555050505b505050505050565b5f6040820190508181035f830152613a588185612e0f565b90508181036020830152613a6c8184612e0f565b90509392505050565b7f54756e65436861696e3a2063616e6e6f74207265706f7274206f776e207472615f8201527f636b000000000000000000000000000000000000000000000000000000000000602082015250565b5f613acf602283612dff565b9150613ada82613a75565b604082019050919050565b5f6020820190508181035f830152613afc81613ac3565b9050919050565b7f54756e65436861696e3a20726561736f6e2063616e6e6f7420626520656d70745f8201527f7900000000000000000000000000000000000000000000000000000000000000602082015250565b5f613b5d602183612dff565b9150613b6882613b03565b604082019050919050565b5f6020820190508181035f830152613b8a81613b51565b9050919050565b7f54756e65436861696e3a207a65726f20616464726573730000000000000000005f82015250565b5f613bc5601783612dff565b9150613bd082613b91565b602082019050919050565b5f6020820190508181035f830152613bf281613bb9565b9050919050565b5f604082019050613c0c5f8301856129b3565b613c196020830184612922565b939250505056fea2646970667358221220a14db751827d330286ac7cd6f3f68dfcf2fa2136a89ea02196466602ea35b1c964736f6c634300081c0033",
  "linkReferences": {},
  "deployedLinkReferences": {},
  "immutableReferences": {},
  "inputSourceName": "project/contracts/TuneChain.sol",
  "buildInfoId": "solc-0_8_28-8b62dd3083ee640e494d4cf300d46a305327caea"
}