{
  "_format": "hh3-artifact-1",
  "contractName": "TuneChain",
  "sourceName": "contracts/TuneChain.sol",
  "abi": [
    {
      "inputs": [
        {
          "internalType": "address",
          "name": "_tokenAddress",
          "type": "address"
        },
        {
          "internalType": "address",
          "name": "_treasury",
          "type": "address"
        },
        {
          "internalType": "address[]",
          "name": "_admins",
          "type": "address[]"
        }
      ],
      "stateMutability": "nonpayable",
      "type": "constructor"
    },
    {
      "inputs": [],
      "name": "AccessControlBadConfirmation",
      "type": "error"
    },
    {
      "inputs": [
        {
          "internalType": "address",
          "name": "account",
          "type": "address"
        },
        {
          "internalType": "bytes32",
          "name": "neededRole",
          "type": "bytes32"
        }
      ],
      "name": "AccessControlUnauthorizedAccount",
      "type": "error"
    },
    {
      "inputs": [],
      "name": "ReentrancyGuardReentrantCall",
      "type": "error"
    },
    {
      "inputs": [
        {
          "internalType": "address",
          "name": "token",
          "type": "address"
        }
      ],
      "name": "SafeERC20FailedOperation",
      "type": "error"
    },
    {
      "anonymous": false,
      "inputs": [
        {
          "indexed": true,
          "internalType": "uint256",
          "name": "reportId",
          "type": "uint256"
        },
        {
          "indexed": false,
          "internalType": "bool",
          "name": "removed",
          "type": "bool"
        }
      ],
      "name": "ReportResolved",
      "type": "event"
    },
    {
      "anonymous": false,
      "inputs": [
        {
          "indexed": true,
          "internalType": "bytes32",
          "name": "role",
          "type": "bytes32"
        },
        {
          "indexed": true,
          "internalType": "bytes32",
          "name": "previousAdminRole",
          "type": "bytes32"
        },
        {
          "indexed": true,
          "internalType": "bytes32",
          "name": "newAdminRole",
          "type": "bytes32"
        }
      ],
      "name": "RoleAdminChanged",
      "type": "event"
    },
    {
      "anonymous": false,
      "inputs": [
        {
          "indexed": true,
          "internalType": "bytes32",
          "name": "role",
          "type": "bytes32"
        },
        {
          "indexed": true,
          "internalType": "address",
          "name": "account",
          "type": "address"
        },
        {
          "indexed": true,
          "internalType": "address",
          "name": "sender",
          "type": "address"
        }
      ],
      "name": "RoleGranted",
      "type": "event"
    },
    {
      "anonymous": false,
      "inputs": [
        {
          "indexed": true,
          "internalType": "bytes32",
          "name": "role",
          "type": "bytes32"
        },
        {
          "indexed": true,
          "internalType": "address",
          "name": "account",
          "type": "address"
        },
        {
          "indexed": true,
          "internalType": "address",
          "name": "sender",
          "type": "address"
        }
      ],
      "name": "RoleRevoked",
      "type": "event"
    },
    {
      "anonymous": false,
      "inputs": [
        {
          "indexed": true,
          "internalType": "address",
          "name": "creator",
          "type": "address"
        },
        {
          "indexed": false,
          "internalType": "uint256",
          "name": "amount",
          "type": "uint256"
        }
      ],
      "name": "TipWithdrawn",
      "type": "event"
    },
    {
      "anonymous": false,
      "inputs": [
        {
          "indexed": true,
          "internalType": "uint256",
          "name": "trackId",
          "type": "uint256"
        }
      ],
      "name": "TrackDeactivated",
      "type": "event"
    },
    {
      "anonymous": false,
      "inputs": [
        {
          "indexed": true,
          "internalType": "uint256",
          "name": "reportId",
          "type": "uint256"
        },
        {
          "indexed": true,
          "internalType": "address",
          "name": "reporter",
          "type": "address"
        },
        {
          "indexed": true,
          "internalType": "uint256",
          "name": "trackId",
          "type": "uint256"
        }
      ],
      "name": "TrackReported",
      "type": "event"
    },
    {
      "anonymous": false,
      "inputs": [
        {
          "indexed": true,
          "internalType": "uint256",
          "name": "tipId",
          "type": "uint256"
        },
        {
          "indexed": true,
          "internalType": "uint256",
          "name": "trackId",
          "type": "uint256"
        },
        {
          "indexed": true,
          "internalType": "address",
          "name": "tipper",
          "type": "address"
        },
        {
          "indexed": false,
          "internalType": "uint256",
          "name": "amount",
          "type": "uint256"
        }
      ],
      "name": "TrackTipped",
      "type": "event"
    },
    {
      "anonymous": false,
      "inputs": [
        {
          "indexed": true,
          "internalType": "uint256",
          "name": "trackId",
          "type": "uint256"
        },
        {
          "indexed": true,
          "internalType": "address",
          "name": "creator",
          "type": "address"
        },
        {
          "indexed": false,
          "internalType": "string",
          "name": "ipfsHash",
          "type": "string"
        },
        {
          "indexed": false,
          "internalType": "string",
          "name": "title",
          "type": "string"
        }
      ],
      "name": "TrackUploaded",
      "type": "event"
    },
    {
      "anonymous": false,
      "inputs": [
        {
          "indexed": false,
          "internalType": "address",
          "name": "newTreasury",
          "type": "address"
        }
      ],
      "name": "TreasuryUpdated",
      "type": "event"
    },
    {
      "inputs": [],
      "name": "ADMIN_ROLE",
      "outputs": [
        {
          "internalType": "bytes32",
          "name": "",
          "type": "bytes32"
        }
      ],
      "stateMutability": "view",
      "type": "function"
    },
    {
      "inputs": [],
      "name": "BASE_UPLOAD_FEE",
      "outputs": [
        {
          "internalType": "uint256",
          "name": "",
          "type": "uint256"
        }
      ],
      "stateMutability": "view",
      "type": "function"
    },
    {
      "inputs": [],
      "name": "DEFAULT_ADMIN_ROLE",
      "outputs": [
        {
          "internalType": "bytes32",
          "name": "",
          "type": "bytes32"
        }
      ],
      "stateMutability": "view",
      "type": "function"
    },
    {
      "inputs": [],
      "name": "ESCROW_DURATION",
      "outputs": [
        {
          "internalType": "uint256",
          "name": "",
          "type": "uint256"
        }
      ],
      "stateMutability": "view",
      "type": "function"
    },
    {
      "inputs": [],
      "name": "STAKE_AMOUNT",
      "outputs": [
        {
          "internalType": "uint256",
          "name": "",
          "type": "uint256"
        }
      ],
      "stateMutability": "view",
      "type": "function"
    },
    {
      "inputs": [
        {
          "internalType": "address",
          "name": "creator",
          "type": "address"
        }
      ],
      "name": "canWithdraw",
      "outputs": [
        {
          "internalType": "bool",
          "name": "",
          "type": "bool"
        }
      ],
      "stateMutability": "view",
      "type": "function"
    },
    {
      "inputs": [],
      "name": "getAllActiveTracks",
      "outputs": [
        {
          "components": [
            {
              "internalType": "uint256",
              "name": "trackId",
              "type": "uint256"
            },
            {
              "internalType": "address",
              "name": "creator",
              "type": "address"
            },
            {
              "internalType": "string",
              "name": "ipfsHash",
              "type": "string"
            },
            {
              "internalType": "string",
              "name": "title",
              "type": "string"
            },
            {
              "internalType": "uint256",
              "name": "totalTips",
              "type": "uint256"
            },
            {
              "internalType": "bool",
              "name": "isActive",
              "type": "bool"
            },
            {
              "internalType": "uint256",
              "name": "createdAt",
              "type": "uint256"
            }
          ],
          "internalType": "struct TuneChain.Track[]",
          "name": "",
          "type": "tuple[]"
        }
      ],
      "stateMutability": "view",
      "type": "function"
    },
    {
      "inputs": [
        {
          "internalType": "address",
          "name": "creator",
          "type": "address"
        }
      ],
      "name": "getCreatorTracks",
      "outputs": [
        {
          "internalType": "uint256[]",
          "name": "",
          "type": "uint256[]"
        }
      ],
      "stateMutability": "view",
      "type": "function"
    },
    {
      "inputs": [
        {
          "internalType": "address",
          "name": "creator",
          "type": "address"
        }
      ],
      "name": "getEscrowInfo",
      "outputs": [
        {
          "internalType": "uint256",
          "name": "balance",
          "type": "uint256"
        },
        {
          "internalType": "uint256",
          "name": "unlockTime",
          "type": "uint256"
        }
      ],
      "stateMutability": "view",
      "type": "function"
    },
    {
      "inputs": [
        {
          "internalType": "bytes32",
          "name": "role",
          "type": "bytes32"
        }
      ],
      "name": "getRoleAdmin",
      "outputs": [
        {
          "internalType": "bytes32",
          "name": "",
          "type": "bytes32"
        }
      ],
      "stateMutability": "view",
      "type": "function"
    },
    {
      "inputs": [
        {
          "internalType": "bytes32",
          "name": "role",
          "type": "bytes32"
        },
        {
          "internalType": "address",
          "name": "account",
          "type": "address"
        }
      ],
      "name": "grantRole",
      "outputs": [],
      "stateMutability": "nonpayable",
      "type": "function"
    },
    {
      "inputs": [
        {
          "internalType": "bytes32",
          "name": "role",
          "type": "bytes32"
        },
        {
          "internalType": "address",
          "name": "account",
          "type": "address"
        }
      ],
      "name": "hasRole",
      "outputs": [
        {
          "internalType": "bool",
          "name": "",
          "type": "bool"
        }
      ],
      "stateMutability": "view",
      "type": "function"
    },
    {
      "inputs": [],
      "name": "nextReportId",
      "outputs": [
        {
          "internalType": "uint256",
          "name": "",
          "type": "uint256"
        }
      ],
      "stateMutability": "view",
      "type": "function"
    },
    {
      "inputs": [],
      "name": "nextTipId",
      "outputs": [
        {
          "internalType": "uint256",
          "name": "",
          "type": "uint256"
        }
      ],
      "stateMutability": "view",
      "type": "function"
    },
    {
      "inputs": [],
      "name": "nextTrackId",
      "outputs": [
        {
          "internalType": "uint256",
          "name": "",
          "type": "uint256"
        }
      ],
      "stateMutability": "view",
      "type": "function"
    },
    {
      "inputs": [
        {
          "internalType": "address",
          "name": "tokenAddr",
          "type": "address"
        },
        {
          "internalType": "uint256",
          "name": "amount",
          "type": "uint256"
        }
      ],
      "name": "recoverTokens",
      "outputs": [],
      "stateMutability": "nonpayable",
      "type": "function"
    },
    {
      "inputs": [
        {
          "internalType": "bytes32",
          "name": "role",
          "type": "bytes32"
        },
        {
          "internalType": "address",
          "name": "callerConfirmation",
          "type": "address"
        }
      ],
      "name": "renounceRole",
      "outputs": [],
      "stateMutability": "nonpayable",
      "type": "function"
    },
    {
      "inputs": [
        {
          "internalType": "uint256",
          "name": "",
          "type": "uint256"
        }
      ],
      "name": "reportCount",
      "outputs": [
        {
          "internalType": "uint256",
          "name": "",
          "type": "uint256"
        }
      ],
      "stateMutability": "view",
      "type": "function"
    },
    {
      "inputs": [
        {
          "internalType": "uint256",
          "name": "trackId",
          "type": "uint256"
        },
        {
          "internalType": "string",
          "name": "reason",
          "type": "string"
        }
      ],
      "name": "reportTrack",
      "outputs": [],
      "stateMutability": "nonpayable",
      "type": "function"
    },
    {
      "inputs": [
        {
          "internalType": "uint256",
          "name": "",
          "type": "uint256"
        }
      ],
      "name": "reports",
      "outputs": [
        {
          "internalType": "uint256",
          "name": "reportId",
          "type": "uint256"
        },
        {
          "internalType": "address",
          "name": "reporter",
          "type": "address"
        },
        {
          "internalType": "uint256",
          "name": "trackId",
          "type": "uint256"
        },
        {
          "internalType": "string",
          "name": "reason",
          "type": "string"
        },
        {
          "internalType": "bool",
          "name": "resolved",
          "type": "bool"
        },
        {
          "internalType": "uint256",
          "name": "createdAt",
          "type": "uint256"
        }
      ],
      "stateMutability": "view",
      "type": "function"
    },
    {
      "inputs": [
        {
          "internalType": "uint256",
          "name": "reportId",
          "type": "uint256"
        },
        {
          "internalType": "bool",
          "name": "removed",
          "type": "bool"
        }
      ],
      "name": "resolveReport",
      "outputs": [],
      "stateMutability": "nonpayable",
      "type": "function"
    },
    {
      "inputs": [
        {
          "internalType": "bytes32",
          "name": "role",
          "type": "bytes32"
        },
        {
          "internalType": "address",
          "name": "account",
          "type": "address"
        }
      ],
      "name": "revokeRole",
      "outputs": [],
      "stateMutability": "nonpayable",
      "type": "function"
    },
    {
      "inputs": [
        {
          "internalType": "address",
          "name": "newTreasury",
          "type": "address"
        }
      ],
      "name": "setTreasury",
      "outputs": [],
      "stateMutability": "nonpayable",
      "type": "function"
    },
    {
      "inputs": [
        {
          "internalType": "bytes4",
          "name": "interfaceId",
          "type": "bytes4"
        }
      ],
      "name": "supportsInterface",
      "outputs": [
        {
          "internalType": "bool",
          "name": "",
          "type": "bool"
        }
      ],
      "stateMutability": "view",
      "type": "function"
    },
    {
      "inputs": [
        {
          "internalType": "uint256",
          "name": "",
          "type": "uint256"
        }
      ],
      "name": "tipRecords",
      "outputs": [
        {
          "internalType": "address",
          "name": "tipper",
          "type": "address"
        },
        {
          "internalType": "uint256",
          "name": "trackId",
          "type": "uint256"
        },
        {
          "internalType": "uint256",
          "name": "amount",
          "type": "uint256"
        },
        {
          "internalType": "uint256",
          "name": "timestamp",
          "type": "uint256"
        }
      ],
      "stateMutability": "view",
      "type": "function"
    },
    {
      "inputs": [
        {
          "internalType": "uint256",
          "name": "trackId",
          "type": "uint256"
        },
        {
          "internalType": "uint256",
          "name": "amount",
          "type": "uint256"
        }
      ],
      "name": "tipTrack",
      "outputs": [],
      "stateMutability": "nonpayable",
      "type": "function"
    },
    {
      "inputs": [
        {
          "internalType": "uint256",
          "name": "",
          "type": "uint256"
        }
      ],
      "name": "tracks",
      "outputs": [
        {
          "internalType": "uint256",
          "name": "trackId",
          "type": "uint256"
        },
        {
          "internalType": "address",
          "name": "creator",
          "type": "address"
        },
        {
          "internalType": "string",
          "name": "ipfsHash",
          "type": "string"
        },
        {
          "internalType": "string",
          "name": "title",
          "type": "string"
        },
        {
          "internalType": "uint256",
          "name": "totalTips",
          "type": "uint256"
        },
        {
          "internalType": "bool",
          "name": "isActive",
          "type": "bool"
        },
        {
          "internalType": "uint256",
          "name": "createdAt",
          "type": "uint256"
        }
      ],
      "stateMutability": "view",
      "type": "function"
    },
    {
      "inputs": [],
      "name": "treasury",
      "outputs": [
        {
          "internalType": "address",
          "name": "",
          "type": "address"
        }
      ],
      "stateMutability": "view",
      "type": "function"
    },
    {
      "inputs": [],
      "name": "tuneToken",
      "outputs": [
        {
          "internalType": "contract IERC20",
          "name": "",
          "type": "address"
        }
      ],
      "stateMutability": "view",
      "type": "function"
    },
    {
      "inputs": [
        {
          "internalType": "string",
          "name": "ipfsHash",
          "type": "string"
        },
        {
          "internalType": "string",
          "name": "title",
          "type": "string"
        }
      ],
      "name": "uploadTrack",
      "outputs": [],
      "stateMutability": "nonpayable",
      "type": "function"
    },
    {
      "inputs": [],
      "name": "withdrawTips",
      "outputs": [],
      "stateMutability": "nonpayable",
      "type": "function"
    }
  ],
  "bytecode": "0x608060405234801561000f575f5ffd5b506040516124da3803806124da83398101604081905261002e91610213565b60017f9b779b17422d0df92223018b32b4d1fa46e071723d6817e2486d003becc55f0055600180546001600160a01b038086166001600160a01b031992831617909255600b80549285169290911691909117905561008c5f3361013b565b506100a45f5160206124ba5f395f51905f523361013b565b505f5b8151811015610122575f6001600160a01b03168282815181106100cc576100cc610300565b60200260200101516001600160a01b03161461011a576101185f5160206124ba5f395f51905f5283838151811061010557610105610300565b602002602001015161013b60201b60201c565b505b6001016100a7565b5050600160028190556003819055600455506103149050565b5f828152602081815260408083206001600160a01b038516845290915281205460ff166101db575f838152602081815260408083206001600160a01b03861684529091529020805460ff191660011790556101933390565b6001600160a01b0316826001600160a01b0316847f2f8788117e7eff1d82e926ec794901d17c78024a50270940304540a733656f0d60405160405180910390a45060016101de565b505f5b92915050565b80516001600160a01b03811681146101fa575f5ffd5b919050565b634e487b7160e01b5f52604160045260245ffd5b5f5f5f60608486031215610225575f5ffd5b61022e846101e4565b925061023c602085016101e4565b60408501519092506001600160401b03811115610257575f5ffd5b8401601f81018613610267575f5ffd5b80516001600160401b03811115610280576102806101ff565b604051600582901b90603f8201601f191681016001600160401b03811182821017156102ae576102ae6101ff565b6040529182526020818401810192908101898411156102cb575f5ffd5b6020850194505b838510156102f1576102e3856101e4565b8152602094850194016102d2565b50809450505050509250925092565b634e487b7160e01b5f52603260045260245ffd5b612199806103215f395ff3fe608060405234801561000f575f5ffd5b50600436106101dc575f3560e01c80638fa823fa11610109578063acc9a5a21161009e578063dda82bdd1161006e578063dda82bdd146104bf578063e626dd9c146104de578063f0f44260146104f1578063faf5625f14610504575f5ffd5b8063acc9a5a21461046b578063b91b6b661461047e578063c942adf714610487578063d547741f146104ac575f5ffd5b8063a6efccf9116100d9578063a6efccf914610436578063a6f5765b14610440578063a72024c614610453578063a95011b41461045c575f5ffd5b80638fa823fa146103e157806391d14854146103f6578063a217fddf14610409578063a2e3458614610410575f5ffd5b80633aaa74b21161017f5780636283128a1161014f5780636283128a1461038b5780636e79bbf61461039e57806375b238fc146103a75780638d54df2d146103ce575f5ffd5b80633aaa74b2146102ee5780634a57db60146102f6578063502a8a951461031657806361d027b314610360575f5ffd5b8063248a9ca3116101ba578063248a9ca3146102305780632f2ff15d14610260578063363198c61461027357806336568abe146102db575f5ffd5b806301ffc9a7146101e0578063069c9fae1461020857806319262d301461021d575b5f5ffd5b6101f36101ee366004611b5c565b610513565b60405190151581526020015b60405180910390f35b61021b610216366004611ba5565b610549565b005b6101f361022b366004611bcd565b6105d5565b61025261023e366004611be6565b5f9081526020819052604090206001015490565b6040519081526020016101ff565b61021b61026e366004611bfd565b610614565b6102b1610281366004611be6565b60066020525f908152604090208054600182015460028301546003909301546001600160a01b0390921692909184565b604080516001600160a01b03909516855260208501939093529183015260608201526080016101ff565b61021b6102e9366004611bfd565b61063e565b61021b610671565b610309610304366004611bcd565b6107dc565b6040516101ff9190611c27565b61034b610324366004611bcd565b6001600160a01b03165f90815260096020908152604080832054600a909252909120549091565b604080519283526020830191909152016101ff565b600b54610373906001600160a01b031681565b6040516001600160a01b0390911681526020016101ff565b61021b610399366004611c5e565b6108fc565b61025260045481565b6102527fa49807205ce4d355092ef5a8a18f56e8913cf4a201fbe287825b095693c2177581565b600154610373906001600160a01b031681565b6103e9610b7c565b6040516101ff9190611cac565b6101f3610404366004611bfd565b610e56565b6102525f81565b61042361041e366004611be6565b610e7e565b6040516101ff9796959493929190611d72565b6102526201518081565b61021b61044e366004611dcd565b610fd4565b61025260025481565b610252678ac7230489e8000081565b61021b610479366004611e9e565b611238565b61025260035481565b61049a610495366004611be6565b611446565b6040516101ff96959493929190611f03565b61021b6104ba366004611bfd565b611510565b6102526104cd366004611be6565b60086020525f908152604090205481565b61021b6104ec366004611f44565b611534565b61021b6104ff366004611bcd565b6117e5565b610252674563918244f4000081565b5f6001600160e01b03198216637965db0b60e01b148061054357506301ffc9a760e01b6001600160e01b03198316145b92915050565b5f6105538161189a565b6001546001600160a01b03908116908416036105b65760405162461bcd60e51b815260206004820152601d60248201527f54756e65436861696e3a2063616e6e6f74207265636f7665722054435400000060448201526064015b60405180910390fd5b600b546105d0906001600160a01b038581169116846118a7565b505050565b6001600160a01b0381165f90815260096020526040812054158015906105435750506001600160a01b03165f908152600a602052604090205442101590565b5f8281526020819052604090206001015461062e8161189a565b61063883836118dc565b50505050565b6001600160a01b03811633146106675760405163334bd91960e11b815260040160405180910390fd5b6105d0828261196b565b6106796119d4565b335f90815260096020526040902054806106d55760405162461bcd60e51b815260206004820152601e60248201527f54756e65436861696e3a206e6f207469707320746f207769746864726177000060448201526064016105ad565b335f908152600a60205260409020544210156107595760405162461bcd60e51b815260206004820152603860248201527f54756e65436861696e3a20657363726f77207374696c6c206c6f636b6564202860448201527f7761697420323468206166746572206c6173742074697029000000000000000060648201526084016105ad565b335f818152600960209081526040808320839055600a90915281205560015461078e916001600160a01b0390911690836118a7565b60405181815233907fb90a88a5e6d88aa2baf23e87edd29a157df95572bb85a56cdaeaf0b00b548d1c9060200160405180910390a2506107da60015f5160206121445f395f51905f5255565b565b60605f60016002546107ee9190611f86565b90505f60015b82811161083e575f818152600560205260409020600101546001600160a01b0380871691160361082c578161082881611f99565b9250505b8061083681611f99565b9150506107f4565b505f8167ffffffffffffffff81111561085957610859611dff565b604051908082528060200260200182016040528015610882578160200160208202803683370190505b5090505f60015b8481116108f1575f818152600560205260409020600101546001600160a01b038089169116036108df57808383815181106108c6576108c6611fb1565b6020908102919091010152816108db81611f99565b9250505b806108e981611f99565b915050610889565b509095945050505050565b815f8111801561090d575060025481105b6109595760405162461bcd60e51b815260206004820152601f60248201527f54756e65436861696e3a20747261636b20646f6573206e6f742065786973740060448201526064016105ad565b5f8381526005602081905260409091200154839060ff166109bc5760405162461bcd60e51b815260206004820152601e60248201527f54756e65436861696e3a20747261636b206973206e6f7420616374697665000060448201526064016105ad565b6109c46119d4565b5f8311610a135760405162461bcd60e51b815260206004820152601d60248201527f54756e65436861696e3a20616d6f756e74206d757374206265203e203000000060448201526064016105ad565b600154610a2b906001600160a01b03163330866119ef565b600380549081905f610a3c83611f99565b909155505060408051608081018252338152602080820188815282840188815242606085019081525f87815260068552868120955186546001600160a01b0319166001600160a01b03909116178655925160018601559051600285015551600390930192909255878252600590529081206004018054869290610ac0908490611fc5565b90915550505f858152600560209081526040808320600101546001600160a01b031680845260099092528220805491928792610afd908490611fc5565b90915550610b1090506201518042611fc5565b6001600160a01b0382165f908152600a602090815260409182902092909255518681523391889185917f084200d41f9e9f2402c03fdaab71485ff3204d0618798b8986f7c2755ca78b93910160405180910390a4505061063860015f5160206121445f395f51905f5255565b60605f6001600254610b8e9190611f86565b90505f60015b828111610bd5575f818152600560208190526040909120015460ff1615610bc35781610bbf81611f99565b9250505b80610bcd81611f99565b915050610b94565b505f8167ffffffffffffffff811115610bf057610bf0611dff565b604051908082528060200260200182016040528015610c6757816020015b610c546040518060e001604052805f81526020015f6001600160a01b0316815260200160608152602001606081526020015f81526020015f151581526020015f81525090565b815260200190600190039081610c0e5790505b5090505f60015b848111610e4c575f818152600560208190526040909120015460ff1615610e3a575f81815260056020908152604091829020825160e0810184528154815260018201546001600160a01b0316928101929092526002810180549293919291840191610cd890611fd8565b80601f0160208091040260200160405190810160405280929190818152602001828054610d0490611fd8565b8015610d4f5780601f10610d2657610100808354040283529160200191610d4f565b820191905f5260205f20905b815481529060010190602001808311610d3257829003601f168201915b50505050508152602001600382018054610d6890611fd8565b80601f0160208091040260200160405190810160405280929190818152602001828054610d9490611fd8565b8015610ddf5780601f10610db657610100808354040283529160200191610ddf565b820191905f5260205f20905b815481529060010190602001808311610dc257829003601f168201915b505050918352505060048201546020820152600582015460ff16151560408201526006909101546060909101528351849084908110610e2057610e20611fb1565b60200260200101819052508180610e3690611f99565b9250505b80610e4481611f99565b915050610c6e565b5090949350505050565b5f918252602082815260408084206001600160a01b0393909316845291905290205460ff1690565b60056020525f908152604090208054600182015460028301805492936001600160a01b0390921692610eaf90611fd8565b80601f0160208091040260200160405190810160405280929190818152602001828054610edb90611fd8565b8015610f265780601f10610efd57610100808354040283529160200191610f26565b820191905f5260205f20905b815481529060010190602001808311610f0957829003601f168201915b505050505090806003018054610f3b90611fd8565b80601f0160208091040260200160405190810160405280929190818152602001828054610f6790611fd8565b8015610fb25780601f10610f8957610100808354040283529160200191610fb2565b820191905f5260205f20905b815481529060010190602001808311610f9557829003601f168201915b50505050600483015460058401546006909401549293909260ff909116915087565b7fa49807205ce4d355092ef5a8a18f56e8913cf4a201fbe287825b095693c21775610ffe8161189a565b6110066119d4565b5f83118015611016575060045483105b6110625760405162461bcd60e51b815260206004820181905260248201527f54756e65436861696e3a207265706f727420646f6573206e6f7420657869737460448201526064016105ad565b5f838152600760205260409020600481015460ff16156110c45760405162461bcd60e51b815260206004820152601b60248201527f54756e65436861696e3a20616c7265616479207265736f6c766564000000000060448201526064016105ad565b60048101805460ff1916600117905582156111e55760028101545f8181526005602081905260409091209081015460ff1661114d5760405162461bcd60e51b8152602060048201526024808201527f54756e65436861696e3a20747261636b20616c72656164792064656163746976604482015263185d195960e21b60648201526084016105ad565b60058101805460ff1916905560018101546001600160a01b03165f8181526009602052604090205480156111b6576001600160a01b038083165f908152600960209081526040808320839055600a909152812055600b546001546111b6929081169116836118a7565b60405184907f04425afbe1dffa4e402885b302fd71a001e144d2cc2a7474b4fb14aab5ac9dd1905f90a2505050505b837fc376607d08aab8e39afddbd149fcbefac7c69dcb371a8795626693e5a5a5d10a84604051611219911515815260200190565b60405180910390a2506105d060015f5160206121445f395f51905f5255565b6112406119d4565b5f82511161129c5760405162461bcd60e51b815260206004820152602360248201527f54756e65436861696e3a2069706673486173682063616e6e6f7420626520656d60448201526270747960e81b60648201526084016105ad565b5f8151116112ec5760405162461bcd60e51b815260206004820181905260248201527f54756e65436861696e3a207469746c652063616e6e6f7420626520656d70747960448201526064016105ad565b600b54600154611313916001600160a01b0391821691339116678ac7230489e800006119ef565b600280549081905f61132483611f99565b90915550506040805160e081018252828152336020808301918252828401878152606084018790525f60808501819052600160a086018190524260c087015287825260059093529490942083518155915190820180546001600160a01b0319166001600160a01b03909216919091179055915190919060028201906113a9908261205b565b50606082015160038201906113be908261205b565b506080820151600482015560a082015160058201805460ff191691151591909117905560c090910151600690910155604051339082907ff8069940c0f36b58363b22325ab081c14c9b7e40aeaf90c9898e16c530be558e906114239087908790612116565b60405180910390a35061144260015f5160206121445f395f51905f5255565b5050565b60076020525f9081526040902080546001820154600283015460038401805493946001600160a01b039093169391929161147f90611fd8565b80601f01602080910402602001604051908101604052809291908181526020018280546114ab90611fd8565b80156114f65780601f106114cd576101008083540402835291602001916114f6565b820191905f5260205f20905b8154815290600101906020018083116114d957829003601f168201915b505050506004830154600590930154919260ff1691905086565b5f8281526020819052604090206001015461152a8161189a565b610638838361196b565b815f81118015611545575060025481105b6115915760405162461bcd60e51b815260206004820152601f60248201527f54756e65436861696e3a20747261636b20646f6573206e6f742065786973740060448201526064016105ad565b5f8381526005602081905260409091200154839060ff166115f45760405162461bcd60e51b815260206004820152601e60248201527f54756e65436861696e3a20747261636b206973206e6f7420616374697665000060448201526064016105ad565b6115fc6119d4565b5f848152600560205260409020600101546001600160a01b0316330361166f5760405162461bcd60e51b815260206004820152602260248201527f54756e65436861696e3a2063616e6e6f74207265706f7274206f776e20747261604482015261636b60f01b60648201526084016105ad565b5f8351116116c95760405162461bcd60e51b815260206004820152602160248201527f54756e65436861696e3a20726561736f6e2063616e6e6f7420626520656d70746044820152607960f81b60648201526084016105ad565b600480549081905f6116da83611f99565b90915550506040805160c081018252828152336020808301918252828401898152606084018981525f608086018190524260a08701528781526007909352949091208351815591516001830180546001600160a01b0319166001600160a01b039092169190911790555160028201559151909190600382019061175d908261205b565b50608082015160048201805460ff191691151591909117905560a0909101516005909101555f85815260086020526040812080549161179b83611f99565b90915550506040518590339083907f675c483d06a61d8de9528374d2e47751ac67075ba8adcd28f58e16748faaa716905f90a45061063860015f5160206121445f395f51905f5255565b5f6117ef8161189a565b6001600160a01b0382166118455760405162461bcd60e51b815260206004820152601760248201527f54756e65436861696e3a207a65726f206164647265737300000000000000000060448201526064016105ad565b600b80546001600160a01b0319166001600160a01b0384169081179091556040519081527f7dae230f18360d76a040c81f050aa14eb9d6dc7901b20fc5d855e2a20fe814d19060200160405180910390a15050565b6118a48133611a25565b50565b6118b48383836001611a5e565b6105d057604051635274afe760e01b81526001600160a01b03841660048201526024016105ad565b5f6118e78383610e56565b611964575f838152602081815260408083206001600160a01b03861684529091529020805460ff1916600117905561191c3390565b6001600160a01b0316826001600160a01b0316847f2f8788117e7eff1d82e926ec794901d17c78024a50270940304540a733656f0d60405160405180910390a4506001610543565b505f610543565b5f6119768383610e56565b15611964575f838152602081815260408083206001600160a01b0386168085529252808320805460ff1916905551339286917ff6391f5c32d9c69d2a47ea670b442974b53935d1edc7fd64eb21e047a839171b9190a4506001610543565b6119dc611ac0565b60025f5160206121445f395f51905f5255565b6119fd848484846001611aef565b61063857604051635274afe760e01b81526001600160a01b03851660048201526024016105ad565b611a2f8282610e56565b6114425760405163e2517d3f60e01b81526001600160a01b0382166004820152602481018390526044016105ad565b60405163a9059cbb60e01b5f8181526001600160a01b038616600452602485905291602083604481808b5af1925060015f51148316611ab4578383151615611aa8573d5f823e3d81fd5b5f873b113d1516831692505b60405250949350505050565b5f5160206121445f395f51905f52546002036107da57604051633ee5aeb560e01b815260040160405180910390fd5b6040516323b872dd60e01b5f8181526001600160a01b038781166004528616602452604485905291602083606481808c5af1925060015f51148316611b4b578383151615611b3f573d5f823e3d81fd5b5f883b113d1516831692505b604052505f60605295945050505050565b5f60208284031215611b6c575f5ffd5b81356001600160e01b031981168114611b83575f5ffd5b9392505050565b80356001600160a01b0381168114611ba0575f5ffd5b919050565b5f5f60408385031215611bb6575f5ffd5b611bbf83611b8a565b946020939093013593505050565b5f60208284031215611bdd575f5ffd5b611b8382611b8a565b5f60208284031215611bf6575f5ffd5b5035919050565b5f5f60408385031215611c0e575f5ffd5b82359150611c1e60208401611b8a565b90509250929050565b602080825282518282018190525f918401906040840190835b818110156108f1578351835260209384019390920191600101611c40565b5f5f60408385031215611c6f575f5ffd5b50508035926020909101359150565b5f81518084528060208401602086015e5f602082860101526020601f19601f83011685010191505092915050565b5f602082016020835280845180835260408501915060408160051b8601019250602086015f5b82811015611d6657603f1987860301845281518051865260018060a01b036020820151166020870152604081015160e06040880152611d1460e0880182611c7e565b905060608201518782036060890152611d2d8282611c7e565b608084810151908a015260a0808501511515908a015260c093840151939098019290925250506020938401939190910190600101611cd2565b50929695505050505050565b8781526001600160a01b038716602082015260e0604082018190525f90611d9b90830188611c7e565b8281036060840152611dad8188611c7e565b6080840196909652505091151560a083015260c090910152949350505050565b5f5f60408385031215611dde575f5ffd5b8235915060208301358015158114611df4575f5ffd5b809150509250929050565b634e487b7160e01b5f52604160045260245ffd5b5f82601f830112611e22575f5ffd5b813567ffffffffffffffff811115611e3c57611e3c611dff565b604051601f8201601f19908116603f0116810167ffffffffffffffff81118282101715611e6b57611e6b611dff565b604052818152838201602001851015611e82575f5ffd5b816020850160208301375f918101602001919091529392505050565b5f5f60408385031215611eaf575f5ffd5b823567ffffffffffffffff811115611ec5575f5ffd5b611ed185828601611e13565b925050602083013567ffffffffffffffff811115611eed575f5ffd5b611ef985828601611e13565b9150509250929050565b86815260018060a01b038616602082015284604082015260c060608201525f611f2f60c0830186611c7e565b93151560808301525060a00152949350505050565b5f5f60408385031215611f55575f5ffd5b82359150602083013567ffffffffffffffff811115611eed575f5ffd5b634e487b7160e01b5f52601160045260245ffd5b8181038181111561054357610543611f72565b5f60018201611faa57611faa611f72565b5060010190565b634e487b7160e01b5f52603260045260245ffd5b8082018082111561054357610543611f72565b600181811c90821680611fec57607f821691505b60208210810361200a57634e487b7160e01b5f52602260045260245ffd5b50919050565b601f8211156105d057805f5260205f20601f840160051c810160208510156120355750805b601f840160051c820191505b81811015612054575f8155600101612041565b5050505050565b815167ffffffffffffffff81111561207557612075611dff565b612089816120838454611fd8565b84612010565b6020601f8211600181146120bb575f83156120a45750848201515b5f19600385901b1c1916600184901b178455612054565b5f84815260208120601f198516915b828110156120ea57878501518255602094850194600190920191016120ca565b508482101561210757868401515f19600387901b60f8161c191681555b50505050600190811b01905550565b604081525f6121286040830185611c7e565b828103602084015261213a8185611c7e565b9594505050505056fe9b779b17422d0df92223018b32b4d1fa46e071723d6817e2486d003becc55f00a2646970667358221220ab1ff33d52e5f52bceb8dace337ddec145ad5cfc64325bd65d98b3c0a66c66af64736f6c634300081c0033a49807205ce4d355092ef5a8a18f56e8913cf4a201fbe287825b095693c21775",
  "linkReferences": {},
  "deployedLinkReferences": {},
  "immutableReferences": {},
  "inputSourceName": "project/contracts/TuneChain.sol",
  "buildInfoId": "solc-0_8_28-cba1ef8e9ddba3763dcb1d180a948da775c79cfc"
}